{
    "_format": "hh-sol-artifact-1",
    "contractName": "L2MessageService",
    "sourceName": "contracts/messageService/l2/L2MessageService.sol",
    "abi": [
        {
            "inputs": [],
            "stateMutability": "nonpayable",
            "type": "constructor"
        },
        {
            "inputs": [],
            "name": "EmptyMessageHashesArray",
            "type": "error"
        },
        {
            "inputs": [
                {
                    "internalType": "address",
                    "name": "recipient",
                    "type": "address"
                }
            ],
            "name": "FeePaymentFailed",
            "type": "error"
        },
        {
            "inputs": [],
            "name": "FeeTooLow",
            "type": "error"
        },
        {
            "inputs": [
                {
                    "internalType": "bytes32",
                    "name": "pauseType",
                    "type": "bytes32"
                }
            ],
            "name": "IsNotPaused",
            "type": "error"
        },
        {
            "inputs": [
                {
                    "internalType": "bytes32",
                    "name": "pauseType",
                    "type": "bytes32"
                }
            ],
            "name": "IsPaused",
            "type": "error"
        },
        {
            "inputs": [],
            "name": "LimitIsZero",
            "type": "error"
        },
        {
            "inputs": [],
            "name": "MessageDoesNotExistOrHasAlreadyBeenClaimed",
            "type": "error"
        },
        {
            "inputs": [
                {
                    "internalType": "uint256",
                    "name": "length",
                    "type": "uint256"
                }
            ],
            "name": "MessageHashesListLengthHigherThanOneHundred",
            "type": "error"
        },
        {
            "inputs": [
                {
                    "internalType": "address",
                    "name": "destination",
                    "type": "address"
                }
            ],
            "name": "MessageSendingFailed",
            "type": "error"
        },
        {
            "inputs": [],
            "name": "PeriodIsZero",
            "type": "error"
        },
        {
            "inputs": [],
            "name": "RateLimitExceeded",
            "type": "error"
        },
        {
            "inputs": [],
            "name": "ValueSentTooLow",
            "type": "error"
        },
        {
            "inputs": [],
            "name": "ValueShouldBeGreaterThanFee",
            "type": "error"
        },
        {
            "inputs": [],
            "name": "ZeroAddressNotAllowed",
            "type": "error"
        },
        {
            "anonymous": false,
            "inputs": [
                {
                    "indexed": true,
                    "internalType": "address",
                    "name": "resettingAddress",
                    "type": "address"
                }
            ],
            "name": "AmountUsedInPeriodReset",
            "type": "event"
        },
        {
            "anonymous": false,
            "inputs": [
                {
                    "indexed": false,
                    "internalType": "uint8",
                    "name": "version",
                    "type": "uint8"
                }
            ],
            "name": "Initialized",
            "type": "event"
        },
        {
            "anonymous": false,
            "inputs": [
                {
                    "indexed": false,
                    "internalType": "bytes32[]",
                    "name": "messageHashes",
                    "type": "bytes32[]"
                }
            ],
            "name": "L1L2MessageHashesAddedToInbox",
            "type": "event"
        },
        {
            "anonymous": false,
            "inputs": [
                {
                    "indexed": true,
                    "internalType": "address",
                    "name": "amountChangeBy",
                    "type": "address"
                },
                {
                    "indexed": false,
                    "internalType": "uint256",
                    "name": "amount",
                    "type": "uint256"
                },
                {
                    "indexed": false,
                    "internalType": "bool",
                    "name": "amountUsedLoweredToLimit",
                    "type": "bool"
                },
                {
                    "indexed": false,
                    "internalType": "bool",
                    "name": "usedAmountResetToZero",
                    "type": "bool"
                }
            ],
            "name": "LimitAmountChanged",
            "type": "event"
        },
        {
            "anonymous": false,
            "inputs": [
                {
                    "indexed": true,
                    "internalType": "bytes32",
                    "name": "_messageHash",
                    "type": "bytes32"
                }
            ],
            "name": "MessageClaimed",
            "type": "event"
        },
        {
            "anonymous": false,
            "inputs": [
                {
                    "indexed": true,
                    "internalType": "address",
                    "name": "_from",
                    "type": "address"
                },
                {
                    "indexed": true,
                    "internalType": "address",
                    "name": "_to",
                    "type": "address"
                },
                {
                    "indexed": false,
                    "internalType": "uint256",
                    "name": "_fee",
                    "type": "uint256"
                },
                {
                    "indexed": false,
                    "internalType": "uint256",
                    "name": "_value",
                    "type": "uint256"
                },
                {
                    "indexed": false,
                    "internalType": "uint256",
                    "name": "_nonce",
                    "type": "uint256"
                },
                {
                    "indexed": false,
                    "internalType": "bytes",
                    "name": "_calldata",
                    "type": "bytes"
                },
                {
                    "indexed": true,
                    "internalType": "bytes32",
                    "name": "_messageHash",
                    "type": "bytes32"
                }
            ],
            "name": "MessageSent",
            "type": "event"
        },
        {
            "anonymous": false,
            "inputs": [
                {
                    "indexed": false,
                    "internalType": "address",
                    "name": "messageSender",
                    "type": "address"
                },
                {
                    "indexed": false,
                    "internalType": "bytes32",
                    "name": "pauseType",
                    "type": "bytes32"
                }
            ],
            "name": "Paused",
            "type": "event"
        },
        {
            "anonymous": false,
            "inputs": [
                {
                    "indexed": true,
                    "internalType": "bytes32",
                    "name": "role",
                    "type": "bytes32"
                },
                {
                    "indexed": true,
                    "internalType": "bytes32",
                    "name": "previousAdminRole",
                    "type": "bytes32"
                },
                {
                    "indexed": true,
                    "internalType": "bytes32",
                    "name": "newAdminRole",
                    "type": "bytes32"
                }
            ],
            "name": "RoleAdminChanged",
            "type": "event"
        },
        {
            "anonymous": false,
            "inputs": [
                {
                    "indexed": true,
                    "internalType": "bytes32",
                    "name": "role",
                    "type": "bytes32"
                },
                {
                    "indexed": true,
                    "internalType": "address",
                    "name": "account",
                    "type": "address"
                },
                {
                    "indexed": true,
                    "internalType": "address",
                    "name": "sender",
                    "type": "address"
                }
            ],
            "name": "RoleGranted",
            "type": "event"
        },
        {
            "anonymous": false,
            "inputs": [
                {
                    "indexed": true,
                    "internalType": "bytes32",
                    "name": "role",
                    "type": "bytes32"
                },
                {
                    "indexed": true,
                    "internalType": "address",
                    "name": "account",
                    "type": "address"
                },
                {
                    "indexed": true,
                    "internalType": "address",
                    "name": "sender",
                    "type": "address"
                }
            ],
            "name": "RoleRevoked",
            "type": "event"
        },
        {
            "anonymous": false,
            "inputs": [
                {
                    "indexed": false,
                    "internalType": "address",
                    "name": "messageSender",
                    "type": "address"
                },
                {
                    "indexed": false,
                    "internalType": "bytes32",
                    "name": "pauseType",
                    "type": "bytes32"
                }
            ],
            "name": "UnPaused",
            "type": "event"
        },
        {
            "inputs": [],
            "name": "DEFAULT_ADMIN_ROLE",
            "outputs": [
                {
                    "internalType": "bytes32",
                    "name": "",
                    "type": "bytes32"
                }
            ],
            "stateMutability": "view",
            "type": "function"
        },
        {
            "inputs": [],
            "name": "GENERAL_PAUSE_TYPE",
            "outputs": [
                {
                    "internalType": "bytes32",
                    "name": "",
                    "type": "bytes32"
                }
            ],
            "stateMutability": "view",
            "type": "function"
        },
        {
            "inputs": [],
            "name": "INBOX_STATUS_CLAIMED",
            "outputs": [
                {
                    "internalType": "uint8",
                    "name": "",
                    "type": "uint8"
                }
            ],
            "stateMutability": "view",
            "type": "function"
        },
        {
            "inputs": [],
            "name": "INBOX_STATUS_RECEIVED",
            "outputs": [
                {
                    "internalType": "uint8",
                    "name": "",
                    "type": "uint8"
                }
            ],
            "stateMutability": "view",
            "type": "function"
        },
        {
            "inputs": [],
            "name": "INBOX_STATUS_UNKNOWN",
            "outputs": [
                {
                    "internalType": "uint8",
                    "name": "",
                    "type": "uint8"
                }
            ],
            "stateMutability": "view",
            "type": "function"
        },
        {
            "inputs": [],
            "name": "L1_L2_MESSAGE_SETTER_ROLE",
            "outputs": [
                {
                    "internalType": "bytes32",
                    "name": "",
                    "type": "bytes32"
                }
            ],
            "stateMutability": "view",
            "type": "function"
        },
        {
            "inputs": [],
            "name": "L1_L2_PAUSE_TYPE",
            "outputs": [
                {
                    "internalType": "bytes32",
                    "name": "",
                    "type": "bytes32"
                }
            ],
            "stateMutability": "view",
            "type": "function"
        },
        {
            "inputs": [],
            "name": "L2_L1_PAUSE_TYPE",
            "outputs": [
                {
                    "internalType": "bytes32",
                    "name": "",
                    "type": "bytes32"
                }
            ],
            "stateMutability": "view",
            "type": "function"
        },
        {
            "inputs": [],
            "name": "MINIMUM_FEE_SETTER_ROLE",
            "outputs": [
                {
                    "internalType": "bytes32",
                    "name": "",
                    "type": "bytes32"
                }
            ],
            "stateMutability": "view",
            "type": "function"
        },
        {
            "inputs": [],
            "name": "PAUSE_MANAGER_ROLE",
            "outputs": [
                {
                    "internalType": "bytes32",
                    "name": "",
                    "type": "bytes32"
                }
            ],
            "stateMutability": "view",
            "type": "function"
        },
        {
            "inputs": [],
            "name": "PROVING_SYSTEM_PAUSE_TYPE",
            "outputs": [
                {
                    "internalType": "bytes32",
                    "name": "",
                    "type": "bytes32"
                }
            ],
            "stateMutability": "view",
            "type": "function"
        },
        {
            "inputs": [],
            "name": "RATE_LIMIT_SETTER_ROLE",
            "outputs": [
                {
                    "internalType": "bytes32",
                    "name": "",
                    "type": "bytes32"
                }
            ],
            "stateMutability": "view",
            "type": "function"
        },
        {
            "inputs": [
                {
                    "internalType": "bytes32[]",
                    "name": "_messageHashes",
                    "type": "bytes32[]"
                }
            ],
            "name": "addL1L2MessageHashes",
            "outputs": [],
            "stateMutability": "nonpayable",
            "type": "function"
        },
        {
            "inputs": [
                {
                    "internalType": "address",
                    "name": "_from",
                    "type": "address"
                },
                {
                    "internalType": "address",
                    "name": "_to",
                    "type": "address"
                },
                {
                    "internalType": "uint256",
                    "name": "_fee",
                    "type": "uint256"
                },
                {
                    "internalType": "uint256",
                    "name": "_value",
                    "type": "uint256"
                },
                {
                    "internalType": "address payable",
                    "name": "_feeRecipient",
                    "type": "address"
                },
                {
                    "internalType": "bytes",
                    "name": "_calldata",
                    "type": "bytes"
                },
                {
                    "internalType": "uint256",
                    "name": "_nonce",
                    "type": "uint256"
                }
            ],
            "name": "claimMessage",
            "outputs": [],
            "stateMutability": "nonpayable",
            "type": "function"
        },
        {
            "inputs": [],
            "name": "currentPeriodAmountInWei",
            "outputs": [
                {
                    "internalType": "uint256",
                    "name": "",
                    "type": "uint256"
                }
            ],
            "stateMutability": "view",
            "type": "function"
        },
        {
            "inputs": [],
            "name": "currentPeriodEnd",
            "outputs": [
                {
                    "internalType": "uint256",
                    "name": "",
                    "type": "uint256"
                }
            ],
            "stateMutability": "view",
            "type": "function"
        },
        {
            "inputs": [
                {
                    "internalType": "bytes32",
                    "name": "role",
                    "type": "bytes32"
                }
            ],
            "name": "getRoleAdmin",
            "outputs": [
                {
                    "internalType": "bytes32",
                    "name": "",
                    "type": "bytes32"
                }
            ],
            "stateMutability": "view",
            "type": "function"
        },
        {
            "inputs": [
                {
                    "internalType": "bytes32",
                    "name": "role",
                    "type": "bytes32"
                },
                {
                    "internalType": "address",
                    "name": "account",
                    "type": "address"
                }
            ],
            "name": "grantRole",
            "outputs": [],
            "stateMutability": "nonpayable",
            "type": "function"
        },
        {
            "inputs": [
                {
                    "internalType": "bytes32",
                    "name": "role",
                    "type": "bytes32"
                },
                {
                    "internalType": "address",
                    "name": "account",
                    "type": "address"
                }
            ],
            "name": "hasRole",
            "outputs": [
                {
                    "internalType": "bool",
                    "name": "",
                    "type": "bool"
                }
            ],
            "stateMutability": "view",
            "type": "function"
        },
        {
            "inputs": [
                {
                    "internalType": "bytes32",
                    "name": "",
                    "type": "bytes32"
                }
            ],
            "name": "inboxL1L2MessageStatus",
            "outputs": [
                {
                    "internalType": "uint256",
                    "name": "",
                    "type": "uint256"
                }
            ],
            "stateMutability": "view",
            "type": "function"
        },
        {
            "inputs": [
                {
                    "internalType": "address",
                    "name": "_securityCouncil",
                    "type": "address"
                },
                {
                    "internalType": "address",
                    "name": "_l1l2MessageSetter",
                    "type": "address"
                },
                {
                    "internalType": "uint256",
                    "name": "_rateLimitPeriod",
                    "type": "uint256"
                },
                {
                    "internalType": "uint256",
                    "name": "_rateLimitAmount",
                    "type": "uint256"
                }
            ],
            "name": "initialize",
            "outputs": [],
            "stateMutability": "nonpayable",
            "type": "function"
        },
        {
            "inputs": [],
            "name": "limitInWei",
            "outputs": [
                {
                    "internalType": "uint256",
                    "name": "",
                    "type": "uint256"
                }
            ],
            "stateMutability": "view",
            "type": "function"
        },
        {
            "inputs": [],
            "name": "minimumFeeInWei",
            "outputs": [
                {
                    "internalType": "uint256",
                    "name": "",
                    "type": "uint256"
                }
            ],
            "stateMutability": "view",
            "type": "function"
        },
        {
            "inputs": [],
            "name": "nextMessageNumber",
            "outputs": [
                {
                    "internalType": "uint256",
                    "name": "",
                    "type": "uint256"
                }
            ],
            "stateMutability": "view",
            "type": "function"
        },
        {
            "inputs": [
                {
                    "internalType": "bytes32",
                    "name": "_pauseType",
                    "type": "bytes32"
                }
            ],
            "name": "pauseByType",
            "outputs": [],
            "stateMutability": "nonpayable",
            "type": "function"
        },
        {
            "inputs": [
                {
                    "internalType": "bytes32",
                    "name": "",
                    "type": "bytes32"
                }
            ],
            "name": "pauseTypeStatuses",
            "outputs": [
                {
                    "internalType": "bool",
                    "name": "",
                    "type": "bool"
                }
            ],
            "stateMutability": "view",
            "type": "function"
        },
        {
            "inputs": [],
            "name": "periodInSeconds",
            "outputs": [
                {
                    "internalType": "uint256",
                    "name": "",
                    "type": "uint256"
                }
            ],
            "stateMutability": "view",
            "type": "function"
        },
        {
            "inputs": [
                {
                    "internalType": "bytes32",
                    "name": "role",
                    "type": "bytes32"
                },
                {
                    "internalType": "address",
                    "name": "account",
                    "type": "address"
                }
            ],
            "name": "renounceRole",
            "outputs": [],
            "stateMutability": "nonpayable",
            "type": "function"
        },
        {
            "inputs": [],
            "name": "resetAmountUsedInPeriod",
            "outputs": [],
            "stateMutability": "nonpayable",
            "type": "function"
        },
        {
            "inputs": [
                {
                    "internalType": "uint256",
                    "name": "_amount",
                    "type": "uint256"
                }
            ],
            "name": "resetRateLimitAmount",
            "outputs": [],
            "stateMutability": "nonpayable",
            "type": "function"
        },
        {
            "inputs": [
                {
                    "internalType": "bytes32",
                    "name": "role",
                    "type": "bytes32"
                },
                {
                    "internalType": "address",
                    "name": "account",
                    "type": "address"
                }
            ],
            "name": "revokeRole",
            "outputs": [],
            "stateMutability": "nonpayable",
            "type": "function"
        },
        {
            "inputs": [
                {
                    "internalType": "address",
                    "name": "_to",
                    "type": "address"
                },
                {
                    "internalType": "uint256",
                    "name": "_fee",
                    "type": "uint256"
                },
                {
                    "internalType": "bytes",
                    "name": "_calldata",
                    "type": "bytes"
                }
            ],
            "name": "sendMessage",
            "outputs": [],
            "stateMutability": "payable",
            "type": "function"
        },
        {
            "inputs": [],
            "name": "sender",
            "outputs": [
                {
                    "internalType": "address",
                    "name": "",
                    "type": "address"
                }
            ],
            "stateMutability": "view",
            "type": "function"
        },
        {
            "inputs": [
                {
                    "internalType": "uint256",
                    "name": "_feeInWei",
                    "type": "uint256"
                }
            ],
            "name": "setMinimumFee",
            "outputs": [],
            "stateMutability": "nonpayable",
            "type": "function"
        },
        {
            "inputs": [
                {
                    "internalType": "bytes4",
                    "name": "interfaceId",
                    "type": "bytes4"
                }
            ],
            "name": "supportsInterface",
            "outputs": [
                {
                    "internalType": "bool",
                    "name": "",
                    "type": "bool"
                }
            ],
            "stateMutability": "view",
            "type": "function"
        },
        {
            "inputs": [
                {
                    "internalType": "bytes32",
                    "name": "_pauseType",
                    "type": "bytes32"
                }
            ],
            "name": "unPauseByType",
            "outputs": [],
            "stateMutability": "nonpayable",
            "type": "function"
        },
        {
            "stateMutability": "payable",
            "type": "receive"
        }
    ],
    "bytecode": "0x60806040523480156200001157600080fd5b506200001c62000022565b620000e3565b600054610100900460ff16156200008f5760405162461bcd60e51b815260206004820152602760248201527f496e697469616c697a61626c653a20636f6e747261637420697320696e697469604482015266616c697a696e6760c81b606482015260840160405180910390fd5b60005460ff90811614620000e1576000805460ff191660ff9081179091556040519081527f7f26b83ff96e1f2b6a682f133852f6798a09c465da95921460cefb38474024989060200160405180910390a15b565b6125a080620000f36000396000f3fe6080604052600436106102535760003560e01c806391f7b90111610138578063bcbd6fcd116100b0578063cc5782f61161007f578063d84f91e811610064578063d84f91e81461073a578063eb990c591461076e578063f4b476e11461078e57600080fd5b8063cc5782f6146106ea578063d547741f1461071a57600080fd5b8063bcbd6fcd14610656578063bf3e75051461068a578063c0729ab1146106be578063c1dc0f07146106d457600080fd5b8063ad422ff011610107578063b45a4f2c116100ec578063b45a4f2c146105eb578063b4a5a4b71461060b578063b837dbe91461063f57600080fd5b8063ad422ff0146105c0578063aea4f745146105d657600080fd5b806391f7b9011461054f5780639f3ce55a14610564578063a217fddf14610577578063abd6230d1461058c57600080fd5b8063557eac73116101cb57806374377a341161019a5780638264bd821161017f5780638264bd82146104c557806389945883146104e557806391d14854146104fc57600080fd5b806374377a341461047c5780637d1e8c55146104b057600080fd5b8063557eac73146103dc57806358794456146103fc57806367e404ce146104125780636a6379671461044857600080fd5b8063248a9ca31161022257806336568abe1161020757806336568abe1461037557806348922ab714610395578063491e0936146103bc57600080fd5b8063248a9ca3146103255780632f2ff15d1461035557600080fd5b806301ffc9a71461025f5780630f6893ca1461029457806311314d0f146102cf578063182a75061461030357600080fd5b3661025a57005b600080fd5b34801561026b57600080fd5b5061027f61027a366004611f65565b6107ae565b60405190151581526020015b60405180910390f35b3480156102a057600080fd5b506102c16102af366004611fa7565b60b06020526000908152604090205481565b60405190815260200161028b565b3480156102db57600080fd5b506102c17f9a80e24e463f00a8763c4dcec6a92d07d33272fa5db895d8589be70dccb002df81565b34801561030f57600080fd5b5061032361031e366004611fa7565b610847565b005b34801561033157600080fd5b506102c1610340366004611fa7565b60009081526065602052604090206001015490565b34801561036157600080fd5b50610323610370366004611fe2565b610878565b34801561038157600080fd5b50610323610390366004611fe2565b6108a2565b3480156103a157600080fd5b506103aa600181565b60405160ff909116815260200161028b565b3480156103c857600080fd5b506103236103d736600461205b565b61095a565b3480156103e857600080fd5b506103236103f7366004611fa7565b610ccf565b34801561040857600080fd5b506102c160995481565b34801561041e57600080fd5b506101155460405173ffffffffffffffffffffffffffffffffffffffff909116815260200161028b565b34801561045457600080fd5b506102c17f06193bb948d6b7a6fcbe51c193ccf2183bb5d979b6ae5d3a6971b8851461d3b081565b34801561048857600080fd5b506102c17f4705265620026983c754c5288b65446d794a03174326ec6d7c0b5c7f1fd6741581565b3480156104bc57600080fd5b506103aa600081565b3480156104d157600080fd5b506103236104e0366004611fa7565b610d97565b3480156104f157600080fd5b506102c16101175481565b34801561050857600080fd5b5061027f610517366004611fe2565b600091825260656020908152604080842073ffffffffffffffffffffffffffffffffffffffff93909316845291905290205460ff1690565b34801561055b57600080fd5b506103aa600281565b6103236105723660046120f1565b610e5d565b34801561058357600080fd5b506102c1600081565b34801561059857600080fd5b506102c17f21ea2f4fee4bcb623de15ac222ea5c1464307d884f23394b78ddc07f9c9c7cd881565b3480156105cc57600080fd5b506102c160985481565b3480156105e257600080fd5b506103236110fe565b3480156105f757600080fd5b50610323610606366004611fa7565b61115a565b34801561061757600080fd5b506102c17f3a56b1bd788a764cbd923badb6d0719f21f520455285bf6877e636d08708878d81565b34801561064b57600080fd5b506102c16101165481565b34801561066257600080fd5b506102c17fcc6ce8bb749b4b07d2f635ce95747506096d0737f9abf10cc8f4a14384603ba281565b34801561069657600080fd5b506102c17f1185e52d62bfbbea270e57d3d09733d221b53ab7a18bae82bb3c6c74bab16d8281565b3480156106ca57600080fd5b506102c1609a5481565b3480156106e057600080fd5b506102c160975481565b3480156106f657600080fd5b5061027f610705366004611fa7565b60a56020526000908152604090205460ff1681565b34801561072657600080fd5b50610323610735366004611fe2565b6111e9565b34801561074657600080fd5b506102c17f356a809dfdea9198dd76fb76bf6d403ecf13ea675eb89e1eda2db2c4a4676a2681565b34801561077a57600080fd5b5061032361078936600461214d565b61120e565b34801561079a57600080fd5b506103236107a9366004612193565b61151f565b60007fffffffff0000000000000000000000000000000000000000000000000000000082167f7965db0b00000000000000000000000000000000000000000000000000000000148061084157507f01ffc9a7000000000000000000000000000000000000000000000000000000007fffffffff000000000000000000000000000000000000000000000000000000008316145b92915050565b7fcc6ce8bb749b4b07d2f635ce95747506096d0737f9abf10cc8f4a14384603ba26108718161162a565b5061011755565b6000828152606560205260409020600101546108938161162a565b61089d8383611637565b505050565b73ffffffffffffffffffffffffffffffffffffffff8116331461094c576040517f08c379a000000000000000000000000000000000000000000000000000000000815260206004820152602f60248201527f416363657373436f6e74726f6c3a2063616e206f6e6c792072656e6f756e636560448201527f20726f6c657320666f722073656c66000000000000000000000000000000000060648201526084015b60405180910390fd5b610956828261172b565b5050565b6109626117e6565b858784848760005a90506109957f9a80e24e463f00a8763c4dcec6a92d07d33272fa5db895d8589be70dccb002df611859565b6109be7f06193bb948d6b7a6fcbe51c193ccf2183bb5d979b6ae5d3a6971b8851461d3b0611859565b60008e8e8e8e8b8e8e6040516020016109dd9796959493929190612251565b6040516020818303038152906040528051906020012090506109fe816118a5565b8e61011560006101000a81548173ffffffffffffffffffffffffffffffffffffffff021916908373ffffffffffffffffffffffffffffffffffffffff1602179055506000808f73ffffffffffffffffffffffffffffffffffffffff168e8d8d604051610a6b9291906122aa565b60006040518083038185875af1925050503d8060008114610aa8576040519150601f19603f3d011682016040523d82523d6000602084013e610aad565b606091505b509150915081610b1757805115610ac75780518082602001fd5b8f6040517f54613443000000000000000000000000000000000000000000000000000000008152600401610943919073ffffffffffffffffffffffffffffffffffffffff91909116815260200190565b61011580547fffffffffffffffffffffffff00000000000000000000000000000000000000001663075bcd1517905560405183907fa4c827e719e911e8f19393ccdb85b5102f08f0910604d340ba38390b7ff2ab0e90600090a2505086159050610cb557856000849003610c0157853b158015610bff573a5a610b9c61b98c866122e9565b610ba691906122fc565b610bb0919061230f565b915081881115610bfb5773ffffffffffffffffffffffffffffffffffffffff87166108fc610bde848b6122fc565b6040518115909202916000818181858888f1935050505050610bff565b8791505b505b600073ffffffffffffffffffffffffffffffffffffffff841615610c255783610c27565b335b905060008173ffffffffffffffffffffffffffffffffffffffff166108fc849081150290604051600060405180830381858888f19350505050905080610cb1576040517fa57c4df400000000000000000000000000000000000000000000000000000000815273ffffffffffffffffffffffffffffffffffffffff83166004820152602401610943565b5050505b505050505050610cc5600160b155565b5050505050505050565b7f1185e52d62bfbbea270e57d3d09733d221b53ab7a18bae82bb3c6c74bab16d82610cf98161162a565b6000806000426099541015610d2057609754610d1590426122e9565b609955506001610d32565b609a54851015610d3257849250600191505b60988590558080610d405750815b15610d4b57609a8390555b60408051868152831515602082015282151581830152905133917fbc3dc0cb5c15c51c81316450d44048838bb478b9809447d01c766a06f3e9f2c8919081900360600190a25050505050565b80610da181611859565b7f356a809dfdea9198dd76fb76bf6d403ecf13ea675eb89e1eda2db2c4a4676a26610dcb8161162a565b600083815260a56020526040902080547fffffffffffffffffffffffffffffffffffffffffffffffffffffffffffffff001660011790557fc343aefb875672fb1857ecda2bdf9fa822ff1e924e3714f6a3d88c5199dee261610e2a3390565b6040805173ffffffffffffffffffffffffffffffffffffffff9092168252602082018690520160405180910390a1505050565b610e867f21ea2f4fee4bcb623de15ac222ea5c1464307d884f23394b78ddc07f9c9c7cd8611859565b610eaf7f06193bb948d6b7a6fcbe51c193ccf2183bb5d979b6ae5d3a6971b8851461d3b0611859565b73ffffffffffffffffffffffffffffffffffffffff8416610efc576040517f8579befe00000000000000000000000000000000000000000000000000000000815260040160405180910390fd5b34831115610f36576040517fb03b693200000000000000000000000000000000000000000000000000000000815260040160405180910390fd5b6101175480841015610f74576040517f732f941300000000000000000000000000000000000000000000000000000000815260040160405180910390fd5b61011654818503903486900390610f93610f8e84846122e9565b611901565b600033898585858b8b604051602001610fb29796959493929190612251565b604080517fffffffffffffffffffffffffffffffffffffffffffffffffffffffffffffffe0818403018152919052805160209091012061011680549192506000610ffb83612326565b9091555050604051600090419087908381818185875af1925050503d8060008114611042576040519150601f19603f3d011682016040523d82523d6000602084013e611047565b606091505b5050905080611084576040517fa57c4df4000000000000000000000000000000000000000000000000000000008152416004820152602401610943565b818a73ffffffffffffffffffffffffffffffffffffffff163373ffffffffffffffffffffffffffffffffffffffff167fe856c2b8bd4eb0027ce32eeaf595c21b0b6b4644b326e5b7bd80a1cf8db72e6c8888888e8e6040516110ea95949392919061235e565b60405180910390a450505050505050505050565b7f1185e52d62bfbbea270e57d3d09733d221b53ab7a18bae82bb3c6c74bab16d826111288161162a565b6000609a81905560405133917fba88c025b0cbb77022c0c487beef24f759f1e4be2f51a205bc427cee19c2eaa691a250565b8061116481611977565b7f356a809dfdea9198dd76fb76bf6d403ecf13ea675eb89e1eda2db2c4a4676a2661118e8161162a565b600083815260a56020526040902080547fffffffffffffffffffffffffffffffffffffffffffffffffffffffffffffff001690557fb54c82d9fabaaa460c07181bb36c08c0e72d79293e77a42ac273c81d2a54281b33610e2a565b6000828152606560205260409020600101546112048161162a565b61089d838361172b565b600054610100900460ff161580801561122e5750600054600160ff909116105b806112485750303b158015611248575060005460ff166001145b6112d4576040517f08c379a000000000000000000000000000000000000000000000000000000000815260206004820152602e60248201527f496e697469616c697a61626c653a20636f6e747261637420697320616c72656160448201527f647920696e697469616c697a65640000000000000000000000000000000000006064820152608401610943565b600080547fffffffffffffffffffffffffffffffffffffffffffffffffffffffffffffff00166001179055801561133257600080547fffffffffffffffffffffffffffffffffffffffffffffffffffffffffffff00ff166101001790555b73ffffffffffffffffffffffffffffffffffffffff851661137f576040517f8579befe00000000000000000000000000000000000000000000000000000000815260040160405180910390fd5b73ffffffffffffffffffffffffffffffffffffffff84166113cc576040517f8579befe00000000000000000000000000000000000000000000000000000000815260040160405180910390fd5b6113d46119c2565b6113dc6119c2565b6113e46119c2565b6113ee8383611a5b565b6113f784611b81565b600161011655611408600086611637565b6114327fcc6ce8bb749b4b07d2f635ce95747506096d0737f9abf10cc8f4a14384603ba286611637565b61145c7f1185e52d62bfbbea270e57d3d09733d221b53ab7a18bae82bb3c6c74bab16d8286611637565b6114867f356a809dfdea9198dd76fb76bf6d403ecf13ea675eb89e1eda2db2c4a4676a2686611637565b61011580547fffffffffffffffffffffffff00000000000000000000000000000000000000001663075bcd15179055801561151857600080547fffffffffffffffffffffffffffffffffffffffffffffffffffffffffffff00ff169055604051600181527f7f26b83ff96e1f2b6a682f133852f6798a09c465da95921460cefb38474024989060200160405180910390a15b5050505050565b7f4705265620026983c754c5288b65446d794a03174326ec6d7c0b5c7f1fd674156115498161162a565b816064811115611588576040517f3b17443400000000000000000000000000000000000000000000000000000000815260048101829052602401610943565b60005b818110156115ea5760008585838181106115a7576115a761238f565b905060200201359050600060ff1660b0600083815260200190815260200160002054036115e157600081815260b060205260409020600190555b5060010161158b565b507f9995fb3da0c2de4012f2b814b6fc29ce7507571dcb20b8d0bd38621a842df1eb848460405161161c9291906123be565b60405180910390a150505050565b6116348133611c42565b50565b600082815260656020908152604080832073ffffffffffffffffffffffffffffffffffffffff8516845290915290205460ff1661095657600082815260656020908152604080832073ffffffffffffffffffffffffffffffffffffffff85168452909152902080547fffffffffffffffffffffffffffffffffffffffffffffffffffffffffffffff001660011790556116cd3390565b73ffffffffffffffffffffffffffffffffffffffff168173ffffffffffffffffffffffffffffffffffffffff16837f2f8788117e7eff1d82e926ec794901d17c78024a50270940304540a733656f0d60405160405180910390a45050565b600082815260656020908152604080832073ffffffffffffffffffffffffffffffffffffffff8516845290915290205460ff161561095657600082815260656020908152604080832073ffffffffffffffffffffffffffffffffffffffff8516808552925280832080547fffffffffffffffffffffffffffffffffffffffffffffffffffffffffffffff0016905551339285917ff6391f5c32d9c69d2a47ea670b442974b53935d1edc7fd64eb21e047a839171b9190a45050565b600260b15403611852576040517f08c379a000000000000000000000000000000000000000000000000000000000815260206004820152601f60248201527f5265656e7472616e637947756172643a207265656e7472616e742063616c6c006044820152606401610943565b600260b155565b600081815260a5602052604090205460ff1615611634576040517f8698dd2b00000000000000000000000000000000000000000000000000000000815260048101829052602401610943565b600081815260b060205260409020546001146118ed576040517fa273b9e600000000000000000000000000000000000000000000000000000000815260040160405180910390fd5b600090815260b06020526040902060029055565b60004260995410156119245760975461191a90426122e9565b6099555080611935565b81609a5461193291906122e9565b90505b609854811115611971576040517fa74c1c5f00000000000000000000000000000000000000000000000000000000815260040160405180910390fd5b609a5550565b600081815260a5602052604090205460ff16611634576040517f15d8d2e100000000000000000000000000000000000000000000000000000000815260048101829052602401610943565b600054610100900460ff16611a59576040517f08c379a000000000000000000000000000000000000000000000000000000000815260206004820152602b60248201527f496e697469616c697a61626c653a20636f6e7472616374206973206e6f74206960448201527f6e697469616c697a696e670000000000000000000000000000000000000000006064820152608401610943565b565b600054610100900460ff16611af2576040517f08c379a000000000000000000000000000000000000000000000000000000000815260206004820152602b60248201527f496e697469616c697a61626c653a20636f6e7472616374206973206e6f74206960448201527f6e697469616c697a696e670000000000000000000000000000000000000000006064820152608401610943565b81600003611b2c576040517fb5ed5a3b00000000000000000000000000000000000000000000000000000000815260040160405180910390fd5b80600003611b66576040517fd10d72bb00000000000000000000000000000000000000000000000000000000815260040160405180910390fd5b60978290556098819055611b7a82426122e9565b6099555050565b600054610100900460ff16611c18576040517f08c379a000000000000000000000000000000000000000000000000000000000815260206004820152602b60248201527f496e697469616c697a61626c653a20636f6e7472616374206973206e6f74206960448201527f6e697469616c697a696e670000000000000000000000000000000000000000006064820152608401610943565b6116347f4705265620026983c754c5288b65446d794a03174326ec6d7c0b5c7f1fd6741582611637565b600082815260656020908152604080832073ffffffffffffffffffffffffffffffffffffffff8516845290915290205460ff1661095657611c8281611cfc565b611c8d836020611d1b565b604051602001611c9e929190612434565b604080517fffffffffffffffffffffffffffffffffffffffffffffffffffffffffffffffe0818403018152908290527f08c379a0000000000000000000000000000000000000000000000000000000008252610943916004016124b5565b606061084173ffffffffffffffffffffffffffffffffffffffff831660145b60606000611d2a83600261230f565b611d359060026122e9565b67ffffffffffffffff811115611d4d57611d4d612506565b6040519080825280601f01601f191660200182016040528015611d77576020820181803683370190505b5090507f300000000000000000000000000000000000000000000000000000000000000081600081518110611dae57611dae61238f565b60200101907effffffffffffffffffffffffffffffffffffffffffffffffffffffffffffff1916908160001a9053507f780000000000000000000000000000000000000000000000000000000000000081600181518110611e1157611e1161238f565b60200101907effffffffffffffffffffffffffffffffffffffffffffffffffffffffffffff1916908160001a9053506000611e4d84600261230f565b611e589060016122e9565b90505b6001811115611ef5577f303132333435363738396162636465660000000000000000000000000000000085600f1660108110611e9957611e9961238f565b1a60f81b828281518110611eaf57611eaf61238f565b60200101907effffffffffffffffffffffffffffffffffffffffffffffffffffffffffffff1916908160001a90535060049490941c93611eee81612535565b9050611e5b565b508315611f5e576040517f08c379a000000000000000000000000000000000000000000000000000000000815260206004820181905260248201527f537472696e67733a20686578206c656e67746820696e73756666696369656e746044820152606401610943565b9392505050565b600060208284031215611f7757600080fd5b81357fffffffff0000000000000000000000000000000000000000000000000000000081168114611f5e57600080fd5b600060208284031215611fb957600080fd5b5035919050565b73ffffffffffffffffffffffffffffffffffffffff8116811461163457600080fd5b60008060408385031215611ff557600080fd5b82359150602083013561200781611fc0565b809150509250929050565b60008083601f84011261202457600080fd5b50813567ffffffffffffffff81111561203c57600080fd5b60208301915083602082850101111561205457600080fd5b9250929050565b60008060008060008060008060e0898b03121561207757600080fd5b883561208281611fc0565b9750602089013561209281611fc0565b9650604089013595506060890135945060808901356120b081611fc0565b935060a089013567ffffffffffffffff8111156120cc57600080fd5b6120d88b828c01612012565b999c989b50969995989497949560c00135949350505050565b6000806000806060858703121561210757600080fd5b843561211281611fc0565b935060208501359250604085013567ffffffffffffffff81111561213557600080fd5b61214187828801612012565b95989497509550505050565b6000806000806080858703121561216357600080fd5b843561216e81611fc0565b9350602085013561217e81611fc0565b93969395505050506040820135916060013590565b600080602083850312156121a657600080fd5b823567ffffffffffffffff808211156121be57600080fd5b818501915085601f8301126121d257600080fd5b8135818111156121e157600080fd5b8660208260051b85010111156121f657600080fd5b60209290920196919550909350505050565b8183528181602085013750600060208284010152600060207fffffffffffffffffffffffffffffffffffffffffffffffffffffffffffffffe0601f840116840101905092915050565b600073ffffffffffffffffffffffffffffffffffffffff808a16835280891660208401525086604083015285606083015284608083015260c060a083015261229d60c083018486612208565b9998505050505050505050565b8183823760009101908152919050565b7f4e487b7100000000000000000000000000000000000000000000000000000000600052601160045260246000fd5b80820180821115610841576108416122ba565b81810381811115610841576108416122ba565b8082028115828204841417610841576108416122ba565b60007fffffffffffffffffffffffffffffffffffffffffffffffffffffffffffffffff8203612357576123576122ba565b5060010190565b858152846020820152836040820152608060608201526000612384608083018486612208565b979650505050505050565b7f4e487b7100000000000000000000000000000000000000000000000000000000600052603260045260246000fd5b6020815281602082015260007f07ffffffffffffffffffffffffffffffffffffffffffffffffffffffffffffff8311156123f757600080fd5b8260051b80856040850137919091016040019392505050565b60005b8381101561242b578181015183820152602001612413565b50506000910152565b7f416363657373436f6e74726f6c3a206163636f756e742000000000000000000081526000835161246c816017850160208801612410565b7f206973206d697373696e6720726f6c652000000000000000000000000000000060179184019182015283516124a9816028840160208801612410565b01602801949350505050565b60208152600082518060208401526124d4816040850160208701612410565b601f017fffffffffffffffffffffffffffffffffffffffffffffffffffffffffffffffe0169190910160400192915050565b7f4e487b7100000000000000000000000000000000000000000000000000000000600052604160045260246000fd5b600081612544576125446122ba565b507fffffffffffffffffffffffffffffffffffffffffffffffffffffffffffffffff019056fea26469706673582212203c1e23193a3a3d14166e51b9c2b8e6595df00bbebec7495efaec76ae5ace8ff464736f6c63430008130033",
    "linkReferences": {},
    "deployedLinkReferences": {}
}