{
    "_format": "hh-sol-artifact-1",
    "contractName": "ZkEvmV2",
    "sourceName": "contracts/ZkEvmV2.sol",
    "abi": [
        {
            "inputs": [],
            "stateMutability": "nonpayable",
            "type": "constructor"
        },
        {
            "inputs": [],
            "name": "BlockTimestampError",
            "type": "error"
        },
        {
            "inputs": [],
            "name": "EmptyBlock",
            "type": "error"
        },
        {
            "inputs": [],
            "name": "EmptyBlockDataArray",
            "type": "error"
        },
        {
            "inputs": [
                {
                    "internalType": "address",
                    "name": "recipient",
                    "type": "address"
                }
            ],
            "name": "FeePaymentFailed",
            "type": "error"
        },
        {
            "inputs": [],
            "name": "FeeTooLow",
            "type": "error"
        },
        {
            "inputs": [],
            "name": "InvalidProof",
            "type": "error"
        },
        {
            "inputs": [],
            "name": "InvalidProofType",
            "type": "error"
        },
        {
            "inputs": [
                {
                    "internalType": "bytes32",
                    "name": "pauseType",
                    "type": "bytes32"
                }
            ],
            "name": "IsNotPaused",
            "type": "error"
        },
        {
            "inputs": [
                {
                    "internalType": "bytes32",
                    "name": "pauseType",
                    "type": "bytes32"
                }
            ],
            "name": "IsPaused",
            "type": "error"
        },
        {
            "inputs": [
                {
                    "internalType": "bytes32",
                    "name": "messageHash",
                    "type": "bytes32"
                }
            ],
            "name": "L1L2MessageNotSent",
            "type": "error"
        },
        {
            "inputs": [],
            "name": "LimitIsZero",
            "type": "error"
        },
        {
            "inputs": [
                {
                    "internalType": "uint256",
                    "name": "inde",
                    "type": "uint256"
                }
            ],
            "name": "MemoryOutOfBounds",
            "type": "error"
        },
        {
            "inputs": [
                {
                    "internalType": "bytes32",
                    "name": "messageHash",
                    "type": "bytes32"
                }
            ],
            "name": "MessageAlreadyReceived",
            "type": "error"
        },
        {
            "inputs": [],
            "name": "MessageAlreadySent",
            "type": "error"
        },
        {
            "inputs": [],
            "name": "MessageDoesNotExistOrHasAlreadyBeenClaimed",
            "type": "error"
        },
        {
            "inputs": [
                {
                    "internalType": "address",
                    "name": "destination",
                    "type": "address"
                }
            ],
            "name": "MessageSendingFailed",
            "type": "error"
        },
        {
            "inputs": [],
            "name": "NotList",
            "type": "error"
        },
        {
            "inputs": [],
            "name": "PeriodIsZero",
            "type": "error"
        },
        {
            "inputs": [],
            "name": "ProofIsEmpty",
            "type": "error"
        },
        {
            "inputs": [],
            "name": "RateLimitExceeded",
            "type": "error"
        },
        {
            "inputs": [],
            "name": "StartingRootHashDoesNotMatch",
            "type": "error"
        },
        {
            "inputs": [],
            "name": "TransactionShort",
            "type": "error"
        },
        {
            "inputs": [],
            "name": "UnknownTransactionType",
            "type": "error"
        },
        {
            "inputs": [],
            "name": "ValueSentTooLow",
            "type": "error"
        },
        {
            "inputs": [],
            "name": "ValueShouldBeGreaterThanFee",
            "type": "error"
        },
        {
            "inputs": [],
            "name": "WrongBytesLength",
            "type": "error"
        },
        {
            "inputs": [],
            "name": "ZeroAddressNotAllowed",
            "type": "error"
        },
        {
            "anonymous": false,
            "inputs": [
                {
                    "indexed": true,
                    "internalType": "address",
                    "name": "resettingAddress",
                    "type": "address"
                }
            ],
            "name": "AmountUsedInPeriodReset",
            "type": "event"
        },
        {
            "anonymous": false,
            "inputs": [
                {
                    "indexed": true,
                    "internalType": "uint256",
                    "name": "blockNumber",
                    "type": "uint256"
                },
                {
                    "indexed": true,
                    "internalType": "bytes32",
                    "name": "stateRootHash",
                    "type": "bytes32"
                }
            ],
            "name": "BlockFinalized",
            "type": "event"
        },
        {
            "anonymous": false,
            "inputs": [
                {
                    "indexed": true,
                    "internalType": "uint256",
                    "name": "lastBlockFinalized",
                    "type": "uint256"
                },
                {
                    "indexed": false,
                    "internalType": "bytes32",
                    "name": "startingRootHash",
                    "type": "bytes32"
                },
                {
                    "indexed": false,
                    "internalType": "bytes32",
                    "name": "finalRootHash",
                    "type": "bytes32"
                }
            ],
            "name": "BlocksVerificationDone",
            "type": "event"
        },
        {
            "anonymous": false,
            "inputs": [
                {
                    "indexed": false,
                    "internalType": "uint8",
                    "name": "version",
                    "type": "uint8"
                }
            ],
            "name": "Initialized",
            "type": "event"
        },
        {
            "anonymous": false,
            "inputs": [
                {
                    "indexed": false,
                    "internalType": "bytes32[]",
                    "name": "messageHashes",
                    "type": "bytes32[]"
                }
            ],
            "name": "L1L2MessagesReceivedOnL2",
            "type": "event"
        },
        {
            "anonymous": false,
            "inputs": [
                {
                    "indexed": true,
                    "internalType": "bytes32",
                    "name": "messageHash",
                    "type": "bytes32"
                }
            ],
            "name": "L2L1MessageHashAddedToInbox",
            "type": "event"
        },
        {
            "anonymous": false,
            "inputs": [
                {
                    "indexed": true,
                    "internalType": "address",
                    "name": "amountChangeBy",
                    "type": "address"
                },
                {
                    "indexed": false,
                    "internalType": "uint256",
                    "name": "amount",
                    "type": "uint256"
                },
                {
                    "indexed": false,
                    "internalType": "bool",
                    "name": "amountUsedLoweredToLimit",
                    "type": "bool"
                },
                {
                    "indexed": false,
                    "internalType": "bool",
                    "name": "usedAmountResetToZero",
                    "type": "bool"
                }
            ],
            "name": "LimitAmountChanged",
            "type": "event"
        },
        {
            "anonymous": false,
            "inputs": [
                {
                    "indexed": true,
                    "internalType": "bytes32",
                    "name": "_messageHash",
                    "type": "bytes32"
                }
            ],
            "name": "MessageClaimed",
            "type": "event"
        },
        {
            "anonymous": false,
            "inputs": [
                {
                    "indexed": true,
                    "internalType": "address",
                    "name": "_from",
                    "type": "address"
                },
                {
                    "indexed": true,
                    "internalType": "address",
                    "name": "_to",
                    "type": "address"
                },
                {
                    "indexed": false,
                    "internalType": "uint256",
                    "name": "_fee",
                    "type": "uint256"
                },
                {
                    "indexed": false,
                    "internalType": "uint256",
                    "name": "_value",
                    "type": "uint256"
                },
                {
                    "indexed": false,
                    "internalType": "uint256",
                    "name": "_nonce",
                    "type": "uint256"
                },
                {
                    "indexed": false,
                    "internalType": "bytes",
                    "name": "_calldata",
                    "type": "bytes"
                },
                {
                    "indexed": true,
                    "internalType": "bytes32",
                    "name": "_messageHash",
                    "type": "bytes32"
                }
            ],
            "name": "MessageSent",
            "type": "event"
        },
        {
            "anonymous": false,
            "inputs": [
                {
                    "indexed": false,
                    "internalType": "address",
                    "name": "messageSender",
                    "type": "address"
                },
                {
                    "indexed": false,
                    "internalType": "bytes32",
                    "name": "pauseType",
                    "type": "bytes32"
                }
            ],
            "name": "Paused",
            "type": "event"
        },
        {
            "anonymous": false,
            "inputs": [
                {
                    "indexed": true,
                    "internalType": "bytes32",
                    "name": "role",
                    "type": "bytes32"
                },
                {
                    "indexed": true,
                    "internalType": "bytes32",
                    "name": "previousAdminRole",
                    "type": "bytes32"
                },
                {
                    "indexed": true,
                    "internalType": "bytes32",
                    "name": "newAdminRole",
                    "type": "bytes32"
                }
            ],
            "name": "RoleAdminChanged",
            "type": "event"
        },
        {
            "anonymous": false,
            "inputs": [
                {
                    "indexed": true,
                    "internalType": "bytes32",
                    "name": "role",
                    "type": "bytes32"
                },
                {
                    "indexed": true,
                    "internalType": "address",
                    "name": "account",
                    "type": "address"
                },
                {
                    "indexed": true,
                    "internalType": "address",
                    "name": "sender",
                    "type": "address"
                }
            ],
            "name": "RoleGranted",
            "type": "event"
        },
        {
            "anonymous": false,
            "inputs": [
                {
                    "indexed": true,
                    "internalType": "bytes32",
                    "name": "role",
                    "type": "bytes32"
                },
                {
                    "indexed": true,
                    "internalType": "address",
                    "name": "account",
                    "type": "address"
                },
                {
                    "indexed": true,
                    "internalType": "address",
                    "name": "sender",
                    "type": "address"
                }
            ],
            "name": "RoleRevoked",
            "type": "event"
        },
        {
            "anonymous": false,
            "inputs": [
                {
                    "indexed": false,
                    "internalType": "address",
                    "name": "messageSender",
                    "type": "address"
                },
                {
                    "indexed": false,
                    "internalType": "bytes32",
                    "name": "pauseType",
                    "type": "bytes32"
                }
            ],
            "name": "UnPaused",
            "type": "event"
        },
        {
            "anonymous": false,
            "inputs": [
                {
                    "indexed": true,
                    "internalType": "address",
                    "name": "verifierAddress",
                    "type": "address"
                },
                {
                    "indexed": true,
                    "internalType": "uint256",
                    "name": "proofType",
                    "type": "uint256"
                },
                {
                    "indexed": true,
                    "internalType": "address",
                    "name": "verifierSetBy",
                    "type": "address"
                }
            ],
            "name": "VerifierAddressChanged",
            "type": "event"
        },
        {
            "inputs": [],
            "name": "DEFAULT_ADMIN_ROLE",
            "outputs": [
                {
                    "internalType": "bytes32",
                    "name": "",
                    "type": "bytes32"
                }
            ],
            "stateMutability": "view",
            "type": "function"
        },
        {
            "inputs": [],
            "name": "GENERAL_PAUSE_TYPE",
            "outputs": [
                {
                    "internalType": "bytes32",
                    "name": "",
                    "type": "bytes32"
                }
            ],
            "stateMutability": "view",
            "type": "function"
        },
        {
            "inputs": [],
            "name": "INBOX_STATUS_RECEIVED",
            "outputs": [
                {
                    "internalType": "uint8",
                    "name": "",
                    "type": "uint8"
                }
            ],
            "stateMutability": "view",
            "type": "function"
        },
        {
            "inputs": [],
            "name": "INBOX_STATUS_UNKNOWN",
            "outputs": [
                {
                    "internalType": "uint8",
                    "name": "",
                    "type": "uint8"
                }
            ],
            "stateMutability": "view",
            "type": "function"
        },
        {
            "inputs": [],
            "name": "L1_L2_PAUSE_TYPE",
            "outputs": [
                {
                    "internalType": "bytes32",
                    "name": "",
                    "type": "bytes32"
                }
            ],
            "stateMutability": "view",
            "type": "function"
        },
        {
            "inputs": [],
            "name": "L2_L1_PAUSE_TYPE",
            "outputs": [
                {
                    "internalType": "bytes32",
                    "name": "",
                    "type": "bytes32"
                }
            ],
            "stateMutability": "view",
            "type": "function"
        },
        {
            "inputs": [],
            "name": "OPERATOR_ROLE",
            "outputs": [
                {
                    "internalType": "bytes32",
                    "name": "",
                    "type": "bytes32"
                }
            ],
            "stateMutability": "view",
            "type": "function"
        },
        {
            "inputs": [],
            "name": "OUTBOX_STATUS_RECEIVED",
            "outputs": [
                {
                    "internalType": "uint8",
                    "name": "",
                    "type": "uint8"
                }
            ],
            "stateMutability": "view",
            "type": "function"
        },
        {
            "inputs": [],
            "name": "OUTBOX_STATUS_SENT",
            "outputs": [
                {
                    "internalType": "uint8",
                    "name": "",
                    "type": "uint8"
                }
            ],
            "stateMutability": "view",
            "type": "function"
        },
        {
            "inputs": [],
            "name": "OUTBOX_STATUS_UNKNOWN",
            "outputs": [
                {
                    "internalType": "uint8",
                    "name": "",
                    "type": "uint8"
                }
            ],
            "stateMutability": "view",
            "type": "function"
        },
        {
            "inputs": [],
            "name": "PAUSE_MANAGER_ROLE",
            "outputs": [
                {
                    "internalType": "bytes32",
                    "name": "",
                    "type": "bytes32"
                }
            ],
            "stateMutability": "view",
            "type": "function"
        },
        {
            "inputs": [],
            "name": "PROVING_SYSTEM_PAUSE_TYPE",
            "outputs": [
                {
                    "internalType": "bytes32",
                    "name": "",
                    "type": "bytes32"
                }
            ],
            "stateMutability": "view",
            "type": "function"
        },
        {
            "inputs": [],
            "name": "RATE_LIMIT_SETTER_ROLE",
            "outputs": [
                {
                    "internalType": "bytes32",
                    "name": "",
                    "type": "bytes32"
                }
            ],
            "stateMutability": "view",
            "type": "function"
        },
        {
            "inputs": [
                {
                    "internalType": "address",
                    "name": "_from",
                    "type": "address"
                },
                {
                    "internalType": "address",
                    "name": "_to",
                    "type": "address"
                },
                {
                    "internalType": "uint256",
                    "name": "_fee",
                    "type": "uint256"
                },
                {
                    "internalType": "uint256",
                    "name": "_value",
                    "type": "uint256"
                },
                {
                    "internalType": "address payable",
                    "name": "_feeRecipient",
                    "type": "address"
                },
                {
                    "internalType": "bytes",
                    "name": "_calldata",
                    "type": "bytes"
                },
                {
                    "internalType": "uint256",
                    "name": "_nonce",
                    "type": "uint256"
                }
            ],
            "name": "claimMessage",
            "outputs": [],
            "stateMutability": "nonpayable",
            "type": "function"
        },
        {
            "inputs": [],
            "name": "currentL2BlockNumber",
            "outputs": [
                {
                    "internalType": "uint256",
                    "name": "",
                    "type": "uint256"
                }
            ],
            "stateMutability": "view",
            "type": "function"
        },
        {
            "inputs": [],
            "name": "currentPeriodAmountInWei",
            "outputs": [
                {
                    "internalType": "uint256",
                    "name": "",
                    "type": "uint256"
                }
            ],
            "stateMutability": "view",
            "type": "function"
        },
        {
            "inputs": [],
            "name": "currentPeriodEnd",
            "outputs": [
                {
                    "internalType": "uint256",
                    "name": "",
                    "type": "uint256"
                }
            ],
            "stateMutability": "view",
            "type": "function"
        },
        {
            "inputs": [],
            "name": "currentTimestamp",
            "outputs": [
                {
                    "internalType": "uint256",
                    "name": "",
                    "type": "uint256"
                }
            ],
            "stateMutability": "view",
            "type": "function"
        },
        {
            "inputs": [
                {
                    "components": [
                        {
                            "internalType": "bytes32",
                            "name": "blockRootHash",
                            "type": "bytes32"
                        },
                        {
                            "internalType": "uint32",
                            "name": "l2BlockTimestamp",
                            "type": "uint32"
                        },
                        {
                            "internalType": "bytes[]",
                            "name": "transactions",
                            "type": "bytes[]"
                        },
                        {
                            "internalType": "bytes32[]",
                            "name": "l2ToL1MsgHashes",
                            "type": "bytes32[]"
                        },
                        {
                            "internalType": "bytes",
                            "name": "fromAddresses",
                            "type": "bytes"
                        },
                        {
                            "internalType": "uint16[]",
                            "name": "batchReceptionIndices",
                            "type": "uint16[]"
                        }
                    ],
                    "internalType": "struct IZkEvmV2.BlockData[]",
                    "name": "_blocksData",
                    "type": "tuple[]"
                },
                {
                    "internalType": "bytes",
                    "name": "_proof",
                    "type": "bytes"
                },
                {
                    "internalType": "uint256",
                    "name": "_proofType",
                    "type": "uint256"
                },
                {
                    "internalType": "bytes32",
                    "name": "_parentStateRootHash",
                    "type": "bytes32"
                }
            ],
            "name": "finalizeBlocks",
            "outputs": [],
            "stateMutability": "nonpayable",
            "type": "function"
        },
        {
            "inputs": [
                {
                    "components": [
                        {
                            "internalType": "bytes32",
                            "name": "blockRootHash",
                            "type": "bytes32"
                        },
                        {
                            "internalType": "uint32",
                            "name": "l2BlockTimestamp",
                            "type": "uint32"
                        },
                        {
                            "internalType": "bytes[]",
                            "name": "transactions",
                            "type": "bytes[]"
                        },
                        {
                            "internalType": "bytes32[]",
                            "name": "l2ToL1MsgHashes",
                            "type": "bytes32[]"
                        },
                        {
                            "internalType": "bytes",
                            "name": "fromAddresses",
                            "type": "bytes"
                        },
                        {
                            "internalType": "uint16[]",
                            "name": "batchReceptionIndices",
                            "type": "uint16[]"
                        }
                    ],
                    "internalType": "struct IZkEvmV2.BlockData[]",
                    "name": "_blocksData",
                    "type": "tuple[]"
                }
            ],
            "name": "finalizeBlocksWithoutProof",
            "outputs": [],
            "stateMutability": "nonpayable",
            "type": "function"
        },
        {
            "inputs": [
                {
                    "internalType": "bytes32",
                    "name": "role",
                    "type": "bytes32"
                }
            ],
            "name": "getRoleAdmin",
            "outputs": [
                {
                    "internalType": "bytes32",
                    "name": "",
                    "type": "bytes32"
                }
            ],
            "stateMutability": "view",
            "type": "function"
        },
        {
            "inputs": [
                {
                    "internalType": "bytes32",
                    "name": "role",
                    "type": "bytes32"
                },
                {
                    "internalType": "address",
                    "name": "account",
                    "type": "address"
                }
            ],
            "name": "grantRole",
            "outputs": [],
            "stateMutability": "nonpayable",
            "type": "function"
        },
        {
            "inputs": [
                {
                    "internalType": "bytes32",
                    "name": "role",
                    "type": "bytes32"
                },
                {
                    "internalType": "address",
                    "name": "account",
                    "type": "address"
                }
            ],
            "name": "hasRole",
            "outputs": [
                {
                    "internalType": "bool",
                    "name": "",
                    "type": "bool"
                }
            ],
            "stateMutability": "view",
            "type": "function"
        },
        {
            "inputs": [
                {
                    "internalType": "bytes32",
                    "name": "",
                    "type": "bytes32"
                }
            ],
            "name": "inboxL2L1MessageStatus",
            "outputs": [
                {
                    "internalType": "uint256",
                    "name": "",
                    "type": "uint256"
                }
            ],
            "stateMutability": "view",
            "type": "function"
        },
        {
            "inputs": [
                {
                    "internalType": "bytes32",
                    "name": "_initialStateRootHash",
                    "type": "bytes32"
                },
                {
                    "internalType": "uint256",
                    "name": "_initialL2BlockNumber",
                    "type": "uint256"
                },
                {
                    "internalType": "address",
                    "name": "_defaultVerifier",
                    "type": "address"
                },
                {
                    "internalType": "address",
                    "name": "_securityCouncil",
                    "type": "address"
                },
                {
                    "internalType": "address[]",
                    "name": "_operators",
                    "type": "address[]"
                },
                {
                    "internalType": "uint256",
                    "name": "_rateLimitPeriodInSeconds",
                    "type": "uint256"
                },
                {
                    "internalType": "uint256",
                    "name": "_rateLimitAmountInWei",
                    "type": "uint256"
                }
            ],
            "name": "initialize",
            "outputs": [],
            "stateMutability": "nonpayable",
            "type": "function"
        },
        {
            "inputs": [],
            "name": "limitInWei",
            "outputs": [
                {
                    "internalType": "uint256",
                    "name": "",
                    "type": "uint256"
                }
            ],
            "stateMutability": "view",
            "type": "function"
        },
        {
            "inputs": [],
            "name": "nextMessageNumber",
            "outputs": [
                {
                    "internalType": "uint256",
                    "name": "",
                    "type": "uint256"
                }
            ],
            "stateMutability": "view",
            "type": "function"
        },
        {
            "inputs": [
                {
                    "internalType": "bytes32",
                    "name": "",
                    "type": "bytes32"
                }
            ],
            "name": "outboxL1L2MessageStatus",
            "outputs": [
                {
                    "internalType": "uint256",
                    "name": "",
                    "type": "uint256"
                }
            ],
            "stateMutability": "view",
            "type": "function"
        },
        {
            "inputs": [
                {
                    "internalType": "bytes32",
                    "name": "_pauseType",
                    "type": "bytes32"
                }
            ],
            "name": "pauseByType",
            "outputs": [],
            "stateMutability": "nonpayable",
            "type": "function"
        },
        {
            "inputs": [
                {
                    "internalType": "bytes32",
                    "name": "",
                    "type": "bytes32"
                }
            ],
            "name": "pauseTypeStatuses",
            "outputs": [
                {
                    "internalType": "bool",
                    "name": "",
                    "type": "bool"
                }
            ],
            "stateMutability": "view",
            "type": "function"
        },
        {
            "inputs": [],
            "name": "periodInSeconds",
            "outputs": [
                {
                    "internalType": "uint256",
                    "name": "",
                    "type": "uint256"
                }
            ],
            "stateMutability": "view",
            "type": "function"
        },
        {
            "inputs": [
                {
                    "internalType": "bytes32",
                    "name": "role",
                    "type": "bytes32"
                },
                {
                    "internalType": "address",
                    "name": "account",
                    "type": "address"
                }
            ],
            "name": "renounceRole",
            "outputs": [],
            "stateMutability": "nonpayable",
            "type": "function"
        },
        {
            "inputs": [],
            "name": "resetAmountUsedInPeriod",
            "outputs": [],
            "stateMutability": "nonpayable",
            "type": "function"
        },
        {
            "inputs": [
                {
                    "internalType": "uint256",
                    "name": "_amount",
                    "type": "uint256"
                }
            ],
            "name": "resetRateLimitAmount",
            "outputs": [],
            "stateMutability": "nonpayable",
            "type": "function"
        },
        {
            "inputs": [
                {
                    "internalType": "bytes32",
                    "name": "role",
                    "type": "bytes32"
                },
                {
                    "internalType": "address",
                    "name": "account",
                    "type": "address"
                }
            ],
            "name": "revokeRole",
            "outputs": [],
            "stateMutability": "nonpayable",
            "type": "function"
        },
        {
            "inputs": [
                {
                    "internalType": "address",
                    "name": "_to",
                    "type": "address"
                },
                {
                    "internalType": "uint256",
                    "name": "_fee",
                    "type": "uint256"
                },
                {
                    "internalType": "bytes",
                    "name": "_calldata",
                    "type": "bytes"
                }
            ],
            "name": "sendMessage",
            "outputs": [],
            "stateMutability": "payable",
            "type": "function"
        },
        {
            "inputs": [],
            "name": "sender",
            "outputs": [
                {
                    "internalType": "address",
                    "name": "",
                    "type": "address"
                }
            ],
            "stateMutability": "view",
            "type": "function"
        },
        {
            "inputs": [
                {
                    "internalType": "address",
                    "name": "_newVerifierAddress",
                    "type": "address"
                },
                {
                    "internalType": "uint256",
                    "name": "_proofType",
                    "type": "uint256"
                }
            ],
            "name": "setVerifierAddress",
            "outputs": [],
            "stateMutability": "nonpayable",
            "type": "function"
        },
        {
            "inputs": [
                {
                    "internalType": "uint256",
                    "name": "",
                    "type": "uint256"
                }
            ],
            "name": "stateRootHashes",
            "outputs": [
                {
                    "internalType": "bytes32",
                    "name": "",
                    "type": "bytes32"
                }
            ],
            "stateMutability": "view",
            "type": "function"
        },
        {
            "inputs": [
                {
                    "internalType": "bytes4",
                    "name": "interfaceId",
                    "type": "bytes4"
                }
            ],
            "name": "supportsInterface",
            "outputs": [
                {
                    "internalType": "bool",
                    "name": "",
                    "type": "bool"
                }
            ],
            "stateMutability": "view",
            "type": "function"
        },
        {
            "inputs": [
                {
                    "internalType": "bytes32",
                    "name": "_pauseType",
                    "type": "bytes32"
                }
            ],
            "name": "unPauseByType",
            "outputs": [],
            "stateMutability": "nonpayable",
            "type": "function"
        },
        {
            "inputs": [
                {
                    "internalType": "uint256",
                    "name": "",
                    "type": "uint256"
                }
            ],
            "name": "verifiers",
            "outputs": [
                {
                    "internalType": "address",
                    "name": "",
                    "type": "address"
                }
            ],
            "stateMutability": "view",
            "type": "function"
        },
        {
            "stateMutability": "payable",
            "type": "receive"
        }
    ],
    "bytecode": "0x60806040523480156200001157600080fd5b506200001c62000022565b620000e3565b600054610100900460ff16156200008f5760405162461bcd60e51b815260206004820152602760248201527f496e697469616c697a61626c653a20636f6e747261637420697320696e697469604482015266616c697a696e6760c81b606482015260840160405180910390fd5b60005460ff90811614620000e1576000805460ff191660ff9081179091556040519081527f7f26b83ff96e1f2b6a682f133852f6798a09c465da95921460cefb38474024989060200160405180910390a15b565b61409380620000f36000396000f3fe6080604052600436106102d55760003560e01c80638be745d111610179578063b45a4f2c116100d6578063c1dc0f071161008a578063d547741f11610064578063d547741f1461085f578063d84f91e81461087f578063f5b541a6146108b357600080fd5b8063c1dc0f07146107f9578063c21169741461080f578063cc5782f61461082f57600080fd5b8063b837dbe9116100bb578063b837dbe914610799578063bf3e7505146107af578063c0729ab1146107e357600080fd5b8063b45a4f2c14610745578063b4a5a4b71461076557600080fd5b8063a217fddf1161012d578063ac1eff6811610112578063ac1eff68146106d6578063ad422ff01461071a578063aea4f7451461073057600080fd5b8063a217fddf1461068d578063abd6230d146106a257600080fd5b806391d148541161015e57806391d1485414610627578063986fcddd146105a45780639f3ce55a1461067a57600080fd5b80638be745d1146105d957806390dad3f61461060757600080fd5b8063557eac7311610232578063695378f5116101e65780637973ead6116101c05780637973ead6146105845780637d1e8c55146105a45780638264bd82146105b957600080fd5b8063695378f5146105245780636a6379671461053b57806373bd07b71461056f57600080fd5b80635b7eb4bd116102175780635b7eb4bd1461042e5780635c721a0c146104ab57806367e404ce146104d857600080fd5b8063557eac7314610475578063587944561461049557600080fd5b806336568abe116102895780634165d6dd1161026e5780634165d6dd1461040e57806348922ab71461042e578063491e09361461045557600080fd5b806336568abe146103c15780633fc08b65146103e157600080fd5b80631e2ff94f116102ba5780631e2ff94f14610358578063248a9ca31461036f5780632f2ff15d1461039f57600080fd5b806301ffc9a7146102e157806311314d0f1461031657600080fd5b366102dc57005b600080fd5b3480156102ed57600080fd5b506103016102fc36600461346c565b6108e7565b60405190151581526020015b60405180910390f35b34801561032257600080fd5b5061034a7f9a80e24e463f00a8763c4dcec6a92d07d33272fa5db895d8589be70dccb002df81565b60405190815260200161030d565b34801561036457600080fd5b5061034a6101185481565b34801561037b57600080fd5b5061034a61038a3660046134ae565b60009081526065602052604090206001015490565b3480156103ab57600080fd5b506103bf6103ba3660046134e9565b610980565b005b3480156103cd57600080fd5b506103bf6103dc3660046134e9565b6109aa565b3480156103ed57600080fd5b5061034a6103fc3660046134ae565b60a56020526000908152604090205481565b34801561041a57600080fd5b506103bf6104293660046135a7565b610a62565b34801561043a57600080fd5b50610443600181565b60405160ff909116815260200161030d565b34801561046157600080fd5b506103bf610470366004613625565b610b47565b34801561048157600080fd5b506103bf6104903660046134ae565b610ecc565b3480156104a157600080fd5b5061034a60995481565b3480156104b757600080fd5b5061034a6104c63660046134ae565b60a66020526000908152604090205481565b3480156104e457600080fd5b5060e55473ffffffffffffffffffffffffffffffffffffffff165b60405173ffffffffffffffffffffffffffffffffffffffff909116815260200161030d565b34801561053057600080fd5b5061034a6101195481565b34801561054757600080fd5b5061034a7f06193bb948d6b7a6fcbe51c193ccf2183bb5d979b6ae5d3a6971b8851461d3b081565b34801561057b57600080fd5b50610443600281565b34801561059057600080fd5b506103bf61059f3660046136bb565b610f94565b3480156105b057600080fd5b50610443600081565b3480156105c557600080fd5b506103bf6105d43660046134ae565b6112da565b3480156105e557600080fd5b5061034a6105f43660046134ae565b61011a6020526000908152604090205481565b34801561061357600080fd5b506103bf610622366004613746565b6113a0565b34801561063357600080fd5b506103016106423660046134e9565b600091825260656020908152604080842073ffffffffffffffffffffffffffffffffffffffff93909316845291905290205460ff1690565b6103bf610688366004613788565b61141c565b34801561069957600080fd5b5061034a600081565b3480156106ae57600080fd5b5061034a7f21ea2f4fee4bcb623de15ac222ea5c1464307d884f23394b78ddc07f9c9c7cd881565b3480156106e257600080fd5b506104ff6106f13660046134ae565b61011b6020526000908152604090205473ffffffffffffffffffffffffffffffffffffffff1681565b34801561072657600080fd5b5061034a60985481565b34801561073c57600080fd5b506103bf6115e5565b34801561075157600080fd5b506103bf6107603660046134ae565b611641565b34801561077157600080fd5b5061034a7f3a56b1bd788a764cbd923badb6d0719f21f520455285bf6877e636d08708878d81565b3480156107a557600080fd5b5061034a60e45481565b3480156107bb57600080fd5b5061034a7f1185e52d62bfbbea270e57d3d09733d221b53ab7a18bae82bb3c6c74bab16d8281565b3480156107ef57600080fd5b5061034a609a5481565b34801561080557600080fd5b5061034a60975481565b34801561081b57600080fd5b506103bf61082a3660046137e4565b6116d0565b34801561083b57600080fd5b5061030161084a3660046134ae565b60d96020526000908152604090205460ff1681565b34801561086b57600080fd5b506103bf61087a3660046134e9565b6117c2565b34801561088b57600080fd5b5061034a7f356a809dfdea9198dd76fb76bf6d403ecf13ea675eb89e1eda2db2c4a4676a2681565b3480156108bf57600080fd5b5061034a7f97667070c54ef182b0f5858b034beac1b6f3089aa2d3188bb1e8929f4fa9b92981565b60007fffffffff0000000000000000000000000000000000000000000000000000000082167f7965db0b00000000000000000000000000000000000000000000000000000000148061097a57507f01ffc9a7000000000000000000000000000000000000000000000000000000007fffffffff000000000000000000000000000000000000000000000000000000008316145b92915050565b60008281526065602052604090206001015461099b816117e7565b6109a583836117f4565b505050565b73ffffffffffffffffffffffffffffffffffffffff81163314610a54576040517f08c379a000000000000000000000000000000000000000000000000000000000815260206004820152602f60248201527f416363657373436f6e74726f6c3a2063616e206f6e6c792072656e6f756e636560448201527f20726f6c657320666f722073656c66000000000000000000000000000000000060648201526084015b60405180910390fd5b610a5e82826118e8565b5050565b7f3a56b1bd788a764cbd923badb6d0719f21f520455285bf6877e636d08708878d610a8c816119a3565b7f06193bb948d6b7a6fcbe51c193ccf2183bb5d979b6ae5d3a6971b8851461d3b0610ab6816119a3565b7f97667070c54ef182b0f5858b034beac1b6f3089aa2d3188bb1e8929f4fa9b929610ae0816117e7565b61011954600090815261011a60205260409020548414610b2c576040517fead4c30e00000000000000000000000000000000000000000000000000000000815260040160405180910390fd5b610b3c89898989898960016119ef565b505050505050505050565b610b4f611f2a565b858784848760005a9050610b827f21ea2f4fee4bcb623de15ac222ea5c1464307d884f23394b78ddc07f9c9c7cd86119a3565b610bab7f06193bb948d6b7a6fcbe51c193ccf2183bb5d979b6ae5d3a6971b8851461d3b06119a3565b60008e8e8e8e8b8e8e604051602001610bca9796959493929190613859565b604051602081830303815290604052805190602001209050610beb81611f9d565b610bfd610bf88d8f6138e1565b611ff6565b8e60e560006101000a81548173ffffffffffffffffffffffffffffffffffffffff021916908373ffffffffffffffffffffffffffffffffffffffff1602179055506000808f73ffffffffffffffffffffffffffffffffffffffff168e8d8d604051610c699291906138f4565b60006040518083038185875af1925050503d8060008114610ca6576040519150601f19603f3d011682016040523d82523d6000602084013e610cab565b606091505b509150915081610d1557805115610cc55780518082602001fd5b8f6040517f54613443000000000000000000000000000000000000000000000000000000008152600401610a4b919073ffffffffffffffffffffffffffffffffffffffff91909116815260200190565b60e580547fffffffffffffffffffffffff00000000000000000000000000000000000000001663075bcd1517905560405183907fa4c827e719e911e8f19393ccdb85b5102f08f0910604d340ba38390b7ff2ab0e90600090a2505086159050610eb257856000849003610dfe57853b158015610dfc573a5a610d9961a410866138e1565b610da39190613904565b610dad9190613917565b915081881115610df85773ffffffffffffffffffffffffffffffffffffffff87166108fc610ddb848b613904565b6040518115909202916000818181858888f1935050505050610dfc565b8791505b505b600073ffffffffffffffffffffffffffffffffffffffff841615610e225783610e24565b335b905060008173ffffffffffffffffffffffffffffffffffffffff166108fc849081150290604051600060405180830381858888f19350505050905080610eae576040517fa57c4df400000000000000000000000000000000000000000000000000000000815273ffffffffffffffffffffffffffffffffffffffff83166004820152602401610a4b565b5050505b505050505050610ec2600160a755565b5050505050505050565b7f1185e52d62bfbbea270e57d3d09733d221b53ab7a18bae82bb3c6c74bab16d82610ef6816117e7565b6000806000426099541015610f1d57609754610f1290426138e1565b609955506001610f2f565b609a54851015610f2f57849250600191505b60988590558080610f3d5750815b15610f4857609a8390555b60408051868152831515602082015282151581830152905133917fbc3dc0cb5c15c51c81316450d44048838bb478b9809447d01c766a06f3e9f2c8919081900360600190a25050505050565b600054610100900460ff1615808015610fb45750600054600160ff909116105b80610fce5750303b158015610fce575060005460ff166001145b61105a576040517f08c379a000000000000000000000000000000000000000000000000000000000815260206004820152602e60248201527f496e697469616c697a61626c653a20636f6e747261637420697320616c72656160448201527f647920696e697469616c697a65640000000000000000000000000000000000006064820152608401610a4b565b600080547fffffffffffffffffffffffffffffffffffffffffffffffffffffffffffffff0016600117905580156110b857600080547fffffffffffffffffffffffffffffffffffffffffffffffffffffffffffff00ff166101001790555b73ffffffffffffffffffffffffffffffffffffffff8716611105576040517f8579befe00000000000000000000000000000000000000000000000000000000815260040160405180910390fd5b60005b848110156111de5760008686838181106111245761112461392e565b9050602002016020810190611139919061395d565b73ffffffffffffffffffffffffffffffffffffffff1603611186576040517f8579befe00000000000000000000000000000000000000000000000000000000815260040160405180910390fd5b6111d67f97667070c54ef182b0f5858b034beac1b6f3089aa2d3188bb1e8929f4fa9b9298787848181106111bc576111bc61392e565b90506020020160208101906111d1919061395d565b6117f4565b600101611108565b506111ea6000876117f4565b6111f68687858561206c565b7f033d11f27e62ab919708ec716731da80d261a6e4253259b7acde9bf89d28ec1880547fffffffffffffffffffffffff00000000000000000000000000000000000000001673ffffffffffffffffffffffffffffffffffffffff8916179055610119889055600088815261011a602052604090208990558015610b3c57600080547fffffffffffffffffffffffffffffffffffffffffffffffffffffffffffff00ff169055604051600181527f7f26b83ff96e1f2b6a682f133852f6798a09c465da95921460cefb38474024989060200160405180910390a1505050505050505050565b806112e4816119a3565b7f356a809dfdea9198dd76fb76bf6d403ecf13ea675eb89e1eda2db2c4a4676a2661130e816117e7565b600083815260d96020526040902080547fffffffffffffffffffffffffffffffffffffffffffffffffffffffffffffff001660011790557fc343aefb875672fb1857ecda2bdf9fa822ff1e924e3714f6a3d88c5199dee26161136d3390565b6040805173ffffffffffffffffffffffffffffffffffffffff9092168252602082018690520160405180910390a1505050565b7f06193bb948d6b7a6fcbe51c193ccf2183bb5d979b6ae5d3a6971b8851461d3b06113ca816119a3565b60006113d5816117e7565b6114168484868660008181106113ed576113ed61392e565b90506020028101906113ff919061397a565b61140d9060808101906139b8565b600080806119ef565b50505050565b7f9a80e24e463f00a8763c4dcec6a92d07d33272fa5db895d8589be70dccb002df611446816119a3565b7f06193bb948d6b7a6fcbe51c193ccf2183bb5d979b6ae5d3a6971b8851461d3b0611470816119a3565b73ffffffffffffffffffffffffffffffffffffffff86166114bd576040517f8579befe00000000000000000000000000000000000000000000000000000000815260040160405180910390fd5b348511156114f7576040517fb03b693200000000000000000000000000000000000000000000000000000000815260040160405180910390fd5b60e45460006115068734613904565b9050600033898984868b8b6040516020016115279796959493929190613859565b60405160208183030381529060405280519060200120905061155781600090815260a56020526040902060019055565b60e4805490600061156783613a1d565b9190505550808973ffffffffffffffffffffffffffffffffffffffff163373ffffffffffffffffffffffffffffffffffffffff167fe856c2b8bd4eb0027ce32eeaf595c21b0b6b4644b326e5b7bd80a1cf8db72e6c8b86888d8d6040516115d2959493929190613a55565b60405180910390a4505050505050505050565b7f1185e52d62bfbbea270e57d3d09733d221b53ab7a18bae82bb3c6c74bab16d8261160f816117e7565b6000609a81905560405133917fba88c025b0cbb77022c0c487beef24f759f1e4be2f51a205bc427cee19c2eaa691a250565b8061164b8161224c565b7f356a809dfdea9198dd76fb76bf6d403ecf13ea675eb89e1eda2db2c4a4676a26611675816117e7565b600083815260d96020526040902080547fffffffffffffffffffffffffffffffffffffffffffffffffffffffffffffff001690557fb54c82d9fabaaa460c07181bb36c08c0e72d79293e77a42ac273c81d2a54281b3361136d565b60006116db816117e7565b73ffffffffffffffffffffffffffffffffffffffff8316611728576040517f8579befe00000000000000000000000000000000000000000000000000000000815260040160405180910390fd5b6040513390839073ffffffffffffffffffffffffffffffffffffffff8616907f4ea861139068e7701a770b8975bb54b6f8f446897fac206dd29424035b4a61eb90600090a450600090815261011b6020526040902080547fffffffffffffffffffffffff00000000000000000000000000000000000000001673ffffffffffffffffffffffffffffffffffffffff92909216919091179055565b6000828152606560205260409020600101546117dd816117e7565b6109a583836118e8565b6117f18133612297565b50565b600082815260656020908152604080832073ffffffffffffffffffffffffffffffffffffffff8516845290915290205460ff16610a5e57600082815260656020908152604080832073ffffffffffffffffffffffffffffffffffffffff85168452909152902080547fffffffffffffffffffffffffffffffffffffffffffffffffffffffffffffff0016600117905561188a3390565b73ffffffffffffffffffffffffffffffffffffffff168173ffffffffffffffffffffffffffffffffffffffff16837f2f8788117e7eff1d82e926ec794901d17c78024a50270940304540a733656f0d60405160405180910390a45050565b600082815260656020908152604080832073ffffffffffffffffffffffffffffffffffffffff8516845290915290205460ff1615610a5e57600082815260656020908152604080832073ffffffffffffffffffffffffffffffffffffffff8516808552925280832080547fffffffffffffffffffffffffffffffffffffffffffffffffffffffffffffff0016905551339285917ff6391f5c32d9c69d2a47ea670b442974b53935d1edc7fd64eb21e047a839171b9190a45050565b600081815260d9602052604090205460ff16156117f1576040517f8698dd2b00000000000000000000000000000000000000000000000000000000815260048101829052602401610a4b565b6000869003611a2a576040517fe98cfd2f00000000000000000000000000000000000000000000000000000000815260040160405180910390fd5b610119546001810160008867ffffffffffffffff811115611a4d57611a4d613a86565b604051908082528060200260200182016040528015611a76578160200160208202803683370190505b50905060008967ffffffffffffffff811115611a9457611a94613a86565b604051908082528060200260200182016040528015611abd578160200160208202803683370190505b509050606060018b0167ffffffffffffffff811115611ade57611ade613a86565b604051908082528060200260200182016040528015611b07578160200160208202803683370190505b5090508681600081518110611b1e57611b1e61392e565b60200260200101818152505060008060005b8d811015611d5457368f8f83818110611b4b57611b4b61392e565b9050602002810190611b5d919061397a565b905042611b706040830160208401613ab5565b63ffffffff1610611bad576040517fd4a3081200000000000000000000000000000000000000000000000000000000815260040160405180910390fd5b611bcf611bbd6040830183613adb565b611bca60a0850185613adb565b612351565b9350611be6611be16060830183613adb565b6124eb565b60019099019892508383611bfd60a0840184613adb565b604051602001611c0e929190613b5a565b604080517fffffffffffffffffffffffffffffffffffffffffffffffffffffffffffffffe08184030181529190528051602090910120611c5160808501856139b8565b604051611c5f9291906138f4565b604051908190038120611c8d9493929160200193845260208401929092526040830152606082015260800190565b60405160208183030381529060405280519060200120868381518110611cb557611cb561392e565b602002602001018181525050806020016020810190611cd49190613ab5565b63ffffffff16878381518110611cec57611cec61392e565b6020026020010181815250508060000135858360010181518110611d1257611d1261392e565b60209081029190910101526040518135908a907ff2c535759092d16e9334a11dd9b52eca543f1d9cca5ba9d16c472aef009de43290600090a350600101611b30565b507fffffffffffffffffffffffffffffffffffffffffffffffffffffffffffffffff8d018e8e82818110611d8a57611d8a61392e565b9050602002810190611d9c919061397a565b600089815261011a60205260409020903590558e8e82818110611dc157611dc161392e565b9050602002810190611dd3919061397a565b611de4906040810190602001613ab5565b63ffffffff1661011855506101198790558715611f1a57600084604051602001611e0e9190613b95565b604051602081830303815290604052805190602001208787604051602001611e369190613b95565b6040516020818303038152906040528051906020012086604051602001611e5d9190613b95565b604080517fffffffffffffffffffffffffffffffffffffffffffffffffffffffffffffffe08184030181528282528051602091820120908301959095528101929092526060820152608081019190915260a001604080517fffffffffffffffffffffffffffffffffffffffffffffffffffffffffffffffe081840301815291905280516020909101207f30644e72e131a029b85045b68181585d2833e84879b9709143e1f593f000000190069050611f18818c8f8f8e612552565b505b5050505050505050505050505050565b600260a75403611f96576040517f08c379a000000000000000000000000000000000000000000000000000000000815260206004820152601f60248201527f5265656e7472616e637947756172643a207265656e7472616e742063616c6c006044820152606401610a4b565b600260a755565b600081815260a66020526040902054600114611fe5576040517fa273b9e600000000000000000000000000000000000000000000000000000000815260040160405180910390fd5b600090815260a66020526040812055565b60004260995410156120195760975461200f90426138e1565b609955508061202a565b81609a5461202791906138e1565b90505b609854811115612066576040517fa74c1c5f00000000000000000000000000000000000000000000000000000000815260040160405180910390fd5b609a5550565b600054610100900460ff16612103576040517f08c379a000000000000000000000000000000000000000000000000000000000815260206004820152602b60248201527f496e697469616c697a61626c653a20636f6e7472616374206973206e6f74206960448201527f6e697469616c697a696e670000000000000000000000000000000000000000006064820152608401610a4b565b73ffffffffffffffffffffffffffffffffffffffff8416612150576040517f8579befe00000000000000000000000000000000000000000000000000000000815260040160405180910390fd5b73ffffffffffffffffffffffffffffffffffffffff831661219d576040517f8579befe00000000000000000000000000000000000000000000000000000000815260040160405180910390fd5b6121a561271f565b6121ad61271f565b6121b561271f565b6121bf82826127b8565b6121e97f1185e52d62bfbbea270e57d3d09733d221b53ab7a18bae82bb3c6c74bab16d82856117f4565b6122137f356a809dfdea9198dd76fb76bf6d403ecf13ea675eb89e1eda2db2c4a4676a26846117f4565b5050600160e455505060e580547fffffffffffffffffffffffff00000000000000000000000000000000000000001663075bcd15179055565b600081815260d9602052604090205460ff166117f1576040517f15d8d2e100000000000000000000000000000000000000000000000000000000815260048101829052602401610a4b565b600082815260656020908152604080832073ffffffffffffffffffffffffffffffffffffffff8516845290915290205460ff16610a5e576122d7816128de565b6122e28360206128fd565b6040516020016122f3929190613bef565b604080517fffffffffffffffffffffffffffffffffffffffffffffffffffffffffffffffe0818403018152908290527f08c379a0000000000000000000000000000000000000000000000000000000008252610a4b91600401613c70565b6000808467ffffffffffffffff81111561236d5761236d613a86565b604051908082528060200260200182016040528015612396578160200160208202803683370190505b50905060008590036123d4576040517f8999649c00000000000000000000000000000000000000000000000000000000815260040160405180910390fd5b60005b8381101561244d5761244561244061243b89898989878181106123fc576123fc61392e565b90506020020160208101906124119190613cc1565b61ffff168181106124245761242461392e565b905060200281019061243691906139b8565b612b47565b612cd4565b612d17565b6001016123d7565b5060005b858110156124b85786868281811061246b5761246b61392e565b905060200281019061247d91906139b8565b60405161248b9291906138f4565b60405180910390208282815181106124a5576124a561392e565b6020908102919091010152600101612451565b50806040516020016124ca9190613b95565b60405160208183030381529060405280519060200120915050949350505050565b6000805b828110156125205761251884848381811061250c5761250c61392e565b90506020020135612df2565b6001016124ef565b508282604051602001612534929190613cdc565b60405160208183030381529060405280519060200120905092915050565b6040805160018082528183019092526000916020808301908036833701905050905085816000815181106125885761258861392e565b602090810291909101810191909152600086815261011b909152604090205473ffffffffffffffffffffffffffffffffffffffff16806125f4576040517f69ed70ab00000000000000000000000000000000000000000000000000000000815260040160405180910390fd5b6040517f7e4f7a8a00000000000000000000000000000000000000000000000000000000815260009073ffffffffffffffffffffffffffffffffffffffff831690637e4f7a8a9061264d90899089908890600401613d1e565b6020604051808303816000875af115801561266c573d6000803e3d6000fd5b505050506040513d601f19601f820116820180604052508101906126909190613d77565b9050806126c9576040517f09bde33900000000000000000000000000000000000000000000000000000000815260040160405180910390fd5b61011954600081815261011a6020908152604091829020548251888152918201527f5c885a794662ebe3b08ae0874fc2c88b5343b0223ba9cd2cad92b69c0d0c901f910160405180910390a25050505050505050565b600054610100900460ff166127b6576040517f08c379a000000000000000000000000000000000000000000000000000000000815260206004820152602b60248201527f496e697469616c697a61626c653a20636f6e7472616374206973206e6f74206960448201527f6e697469616c697a696e670000000000000000000000000000000000000000006064820152608401610a4b565b565b600054610100900460ff1661284f576040517f08c379a000000000000000000000000000000000000000000000000000000000815260206004820152602b60248201527f496e697469616c697a61626c653a20636f6e7472616374206973206e6f74206960448201527f6e697469616c697a696e670000000000000000000000000000000000000000006064820152608401610a4b565b81600003612889576040517fb5ed5a3b00000000000000000000000000000000000000000000000000000000815260040160405180910390fd5b806000036128c3576040517fd10d72bb00000000000000000000000000000000000000000000000000000000815260040160405180910390fd5b609782905560988190556128d782426138e1565b6099555050565b606061097a73ffffffffffffffffffffffffffffffffffffffff831660145b6060600061290c836002613917565b6129179060026138e1565b67ffffffffffffffff81111561292f5761292f613a86565b6040519080825280601f01601f191660200182016040528015612959576020820181803683370190505b5090507f3000000000000000000000000000000000000000000000000000000000000000816000815181106129905761299061392e565b60200101907effffffffffffffffffffffffffffffffffffffffffffffffffffffffffffff1916908160001a9053507f7800000000000000000000000000000000000000000000000000000000000000816001815181106129f3576129f361392e565b60200101907effffffffffffffffffffffffffffffffffffffffffffffffffffffffffffff1916908160001a9053506000612a2f846002613917565b612a3a9060016138e1565b90505b6001811115612ad7577f303132333435363738396162636465660000000000000000000000000000000085600f1660108110612a7b57612a7b61392e565b1a60f81b828281518110612a9157612a9161392e565b60200101907effffffffffffffffffffffffffffffffffffffffffffffffffffffffffffff1916908160001a90535060049490941c93612ad081613d99565b9050612a3d565b508315612b40576040517f08c379a000000000000000000000000000000000000000000000000000000000815260206004820181905260248201527f537472696e67733a20686578206c656e67746820696e73756666696369656e746044820152606401610a4b565b9392505050565b60606001821015612b84576040517fbac5bf1b00000000000000000000000000000000000000000000000000000000815260040160405180910390fd5b600083836000818110612b9957612b9961392e565b909101357fff00000000000000000000000000000000000000000000000000000000000000169150507f0100000000000000000000000000000000000000000000000000000000000000819003612bfc57612bf48484612e77565b91505061097a565b7fff0000000000000000000000000000000000000000000000000000000000000081167f020000000000000000000000000000000000000000000000000000000000000003612c4f57612bf48484612ef6565b7fc0000000000000000000000000000000000000000000000000000000000000007fff00000000000000000000000000000000000000000000000000000000000000821610612ca257612bf48484612f66565b6040517fe95a14a600000000000000000000000000000000000000000000000000000000815260040160405180910390fd5b80517ffffffffffffffffffffffffffffffffffffffffffffffffffffffffffffffffc8101600483019081529160609161097a9190810160200190602401613dce565b805160005b81811015612db6576000838281518110612d3857612d3861392e565b602090810291909101810151600081815260a590925260409091205490915080612d91576040517f62a064c500000000000000000000000000000000000000000000000000000000815260048101839052602401610a4b565b60028114612dac57600082815260a560205260409020600290555b5050600101612d1c565b507f95e84bb4317676921a29fd1d13f8f0153508473b899c12b3cd08314348801d6482604051612de69190613eaa565b60405180910390a15050565b600081815260a6602052604090205415612e3b576040517fee49e00100000000000000000000000000000000000000000000000000000000815260048101829052602401610a4b565b600081815260a66020526040808220600190555182917f810484e22f73d8f099aaee1edb851ec6be6d84d43045d0a7803e5f7b3612edce91a250565b60606000612e888360018187613eee565b8080601f0160208091040260200160405190810160405280939291908181526020018383808284376000920182905250939450612eca9250849150612fcb9050565b90506000612ed782612ff0565b9050612eec612ee782600761307f565b613193565b9695505050505050565b60606000612f078360018187613eee565b8080601f0160208091040260200160405190810160405280939291908181526020018383808284376000920182905250939450612f499250849150612fcb9050565b90506000612f5682612ff0565b9050612eec612ee782600861307f565b6060600083838080601f0160208091040260200160405190810160405280939291908181526020018383808284376000920182905250939450612fae9250849150612fcb9050565b90506000612fbb82612ff0565b9050612eec612ee782600661307f565b6040805180820190915260008082526020808301918252835183529290920190915290565b604080516080810182526000918101828152606082018390528152602081019190915261301c8261323e565b613052576040517f0600783200000000000000000000000000000000000000000000000000000000815260040160405180910390fd5b60006130618360200151613279565b836020015161307091906138e1565b92825250602081019190915290565b60408051808201909152600080825260208083018290528451015180518290811a8160f88210600181146130b85780156130c3576130dd565b60c0830395506130dd565b60f783039150600185019450816020036101000a85510495505b506020880151848601935060006130f3826132f4565b90506130ff81836138e1565b60208b015260005b61311260018b613904565b81101561317f578a6020015192508583111561315d576040517f78268bbb00000000000000000000000000000000000000000000000000000000815260048101879052602401610a4b565b613166836132f4565b915061317282846138e1565b60208c0152600101613107565b508752602087015250939695505050505050565b80516060906000036131d1576040517f5780864900000000000000000000000000000000000000000000000000000000815260040160405180910390fd5b6000806131dd846133a3565b915091508067ffffffffffffffff8111156131fa576131fa613a86565b6040519080825280601f01601f191660200182016040528015613224576020820181803683370190505b509250602083016132368382846133ea565b505050919050565b8051600090810361325157506000919050565b6020820151805160001a9060c082101561326f575060009392505050565b5060019392505050565b8051600090811a60808110156132925750600092915050565b60b88110806132ad575060c081108015906132ad575060f881105b156132bb5750600192915050565b60c08110156132e8576132d0600160b8613f18565b6132dd9060ff1682613904565b612b409060016138e1565b6132d0600160f8613f18565b805160009081908190811a6080811015613311576001925061339a565b60b881101561333757613325608082613904565b6133309060016138e1565b925061339a565b60c08110156133655760b78103600186019550806020036101000a865104925060018101830193505061339a565b60f88110156133795761332560c082613904565b60f78103600186019550806020036101000a86510492506001810183019350505b50909392505050565b60008060006133b58460200151613279565b905060008185602001516133c991906138e1565b905060008286600001516133dd9190613904565b9196919550909350505050565b806000036133f757505050565b6020811061342f578251825261340e6020846138e1565b925061341b6020836138e1565b9150613428602082613904565b90506133f7565b80156109a55760006001613444836020613904565b61345090610100614051565b61345a9190613904565b84518451821691191617835250505050565b60006020828403121561347e57600080fd5b81357fffffffff0000000000000000000000000000000000000000000000000000000081168114612b4057600080fd5b6000602082840312156134c057600080fd5b5035919050565b73ffffffffffffffffffffffffffffffffffffffff811681146117f157600080fd5b600080604083850312156134fc57600080fd5b82359150602083013561350e816134c7565b809150509250929050565b60008083601f84011261352b57600080fd5b50813567ffffffffffffffff81111561354357600080fd5b6020830191508360208260051b850101111561355e57600080fd5b9250929050565b60008083601f84011261357757600080fd5b50813567ffffffffffffffff81111561358f57600080fd5b60208301915083602082850101111561355e57600080fd5b600080600080600080608087890312156135c057600080fd5b863567ffffffffffffffff808211156135d857600080fd5b6135e48a838b01613519565b909850965060208901359150808211156135fd57600080fd5b5061360a89828a01613565565b979a9699509760408101359660609091013595509350505050565b60008060008060008060008060e0898b03121561364157600080fd5b883561364c816134c7565b9750602089013561365c816134c7565b96506040890135955060608901359450608089013561367a816134c7565b935060a089013567ffffffffffffffff81111561369657600080fd5b6136a28b828c01613565565b999c989b50969995989497949560c00135949350505050565b60008060008060008060008060e0898b0312156136d757600080fd5b883597506020890135965060408901356136f0816134c7565b95506060890135613700816134c7565b9450608089013567ffffffffffffffff81111561371c57600080fd5b6137288b828c01613519565b999c989b5096999598969760a08701359660c0013595509350505050565b6000806020838503121561375957600080fd5b823567ffffffffffffffff81111561377057600080fd5b61377c85828601613519565b90969095509350505050565b6000806000806060858703121561379e57600080fd5b84356137a9816134c7565b935060208501359250604085013567ffffffffffffffff8111156137cc57600080fd5b6137d887828801613565565b95989497509550505050565b600080604083850312156137f757600080fd5b8235613802816134c7565b946020939093013593505050565b8183528181602085013750600060208284010152600060207fffffffffffffffffffffffffffffffffffffffffffffffffffffffffffffffe0601f840116840101905092915050565b600073ffffffffffffffffffffffffffffffffffffffff808a16835280891660208401525086604083015285606083015284608083015260c060a08301526138a560c083018486613810565b9998505050505050505050565b7f4e487b7100000000000000000000000000000000000000000000000000000000600052601160045260246000fd5b8082018082111561097a5761097a6138b2565b8183823760009101908152919050565b8181038181111561097a5761097a6138b2565b808202811582820484141761097a5761097a6138b2565b7f4e487b7100000000000000000000000000000000000000000000000000000000600052603260045260246000fd5b60006020828403121561396f57600080fd5b8135612b40816134c7565b600082357fffffffffffffffffffffffffffffffffffffffffffffffffffffffffffffff418336030181126139ae57600080fd5b9190910192915050565b60008083357fffffffffffffffffffffffffffffffffffffffffffffffffffffffffffffffe18436030181126139ed57600080fd5b83018035915067ffffffffffffffff821115613a0857600080fd5b60200191503681900382131561355e57600080fd5b60007fffffffffffffffffffffffffffffffffffffffffffffffffffffffffffffffff8203613a4e57613a4e6138b2565b5060010190565b858152846020820152836040820152608060608201526000613a7b608083018486613810565b979650505050505050565b7f4e487b7100000000000000000000000000000000000000000000000000000000600052604160045260246000fd5b600060208284031215613ac757600080fd5b813563ffffffff81168114612b4057600080fd5b60008083357fffffffffffffffffffffffffffffffffffffffffffffffffffffffffffffffe1843603018112613b1057600080fd5b83018035915067ffffffffffffffff821115613b2b57600080fd5b6020019150600581901b360382131561355e57600080fd5b803561ffff81168114613b5557600080fd5b919050565b60008184825b85811015613b8a5761ffff613b7483613b43565b1683526020928301929190910190600101613b60565b509095945050505050565b815160009082906020808601845b83811015613bbf57815185529382019390820190600101613ba3565b50929695505050505050565b60005b83811015613be6578181015183820152602001613bce565b50506000910152565b7f416363657373436f6e74726f6c3a206163636f756e7420000000000000000000815260008351613c27816017850160208801613bcb565b7f206973206d697373696e6720726f6c65200000000000000000000000000000006017918401918201528351613c64816028840160208801613bcb565b01602801949350505050565b6020815260008251806020840152613c8f816040850160208701613bcb565b601f017fffffffffffffffffffffffffffffffffffffffffffffffffffffffffffffffe0169190910160400192915050565b600060208284031215613cd357600080fd5b612b4082613b43565b60007f07ffffffffffffffffffffffffffffffffffffffffffffffffffffffffffffff831115613d0b57600080fd5b8260051b80858437919091019392505050565b604081526000613d32604083018587613810565b82810360208481019190915284518083528582019282019060005b81811015613d6957845183529383019391830191600101613d4d565b509098975050505050505050565b600060208284031215613d8957600080fd5b81518015158114612b4057600080fd5b600081613da857613da86138b2565b507fffffffffffffffffffffffffffffffffffffffffffffffffffffffffffffffff0190565b60006020808385031215613de157600080fd5b825167ffffffffffffffff80821115613df957600080fd5b818501915085601f830112613e0d57600080fd5b815181811115613e1f57613e1f613a86565b8060051b6040517fffffffffffffffffffffffffffffffffffffffffffffffffffffffffffffffe0603f83011681018181108582111715613e6257613e62613a86565b604052918252848201925083810185019188831115613e8057600080fd5b938501935b82851015613e9e57845184529385019392850192613e85565b98975050505050505050565b6020808252825182820181905260009190848201906040850190845b81811015613ee257835183529284019291840191600101613ec6565b50909695505050505050565b60008085851115613efe57600080fd5b83861115613f0b57600080fd5b5050820193919092039150565b60ff828116828216039081111561097a5761097a6138b2565b600181815b80851115613f8a57817fffffffffffffffffffffffffffffffffffffffffffffffffffffffffffffffff04821115613f7057613f706138b2565b80851615613f7d57918102915b93841c9390800290613f36565b509250929050565b600082613fa15750600161097a565b81613fae5750600061097a565b8160018114613fc45760028114613fce57613fea565b600191505061097a565b60ff841115613fdf57613fdf6138b2565b50506001821b61097a565b5060208310610133831016604e8410600b841016171561400d575081810a61097a565b6140178383613f31565b807fffffffffffffffffffffffffffffffffffffffffffffffffffffffffffffffff04821115614049576140496138b2565b029392505050565b6000612b408383613f9256fea2646970667358221220676b1e996e4de5918aca476c8b27f4559d425e3575a1cdef3fbb9282f956f0c364736f6c63430008130033",
    "linkReferences": {},
    "deployedLinkReferences": {}
}